{
  "_format": "hh-sol-artifact-1",
  "contractName": "ERC1155Collectable",
  "sourceName": "contracts/ERC1155Collectable.sol",
  "abi": [
    {
      "inputs": [
        {
          "internalType": "string",
          "name": "uri",
          "type": "string"
        }
      ],
      "stateMutability": "nonpayable",
      "type": "constructor"
    },
    {
      "anonymous": false,
      "inputs": [
        {
          "indexed": true,
          "internalType": "address",
          "name": "account",
          "type": "address"
        },
        {
          "indexed": true,
          "internalType": "address",
          "name": "operator",
          "type": "address"
        },
        {
          "indexed": false,
          "internalType": "bool",
          "name": "approved",
          "type": "bool"
        }
      ],
      "name": "ApprovalForAll",
      "type": "event"
    },
    {
      "anonymous": false,
      "inputs": [
        {
          "indexed": false,
          "internalType": "address",
          "name": "account",
          "type": "address"
        }
      ],
      "name": "Paused",
      "type": "event"
    },
    {
      "anonymous": false,
      "inputs": [
        {
          "indexed": true,
          "internalType": "bytes32",
          "name": "role",
          "type": "bytes32"
        },
        {
          "indexed": true,
          "internalType": "bytes32",
          "name": "previousAdminRole",
          "type": "bytes32"
        },
        {
          "indexed": true,
          "internalType": "bytes32",
          "name": "newAdminRole",
          "type": "bytes32"
        }
      ],
      "name": "RoleAdminChanged",
      "type": "event"
    },
    {
      "anonymous": false,
      "inputs": [
        {
          "indexed": true,
          "internalType": "bytes32",
          "name": "role",
          "type": "bytes32"
        },
        {
          "indexed": true,
          "internalType": "address",
          "name": "account",
          "type": "address"
        },
        {
          "indexed": true,
          "internalType": "address",
          "name": "sender",
          "type": "address"
        }
      ],
      "name": "RoleGranted",
      "type": "event"
    },
    {
      "anonymous": false,
      "inputs": [
        {
          "indexed": true,
          "internalType": "bytes32",
          "name": "role",
          "type": "bytes32"
        },
        {
          "indexed": true,
          "internalType": "address",
          "name": "account",
          "type": "address"
        },
        {
          "indexed": true,
          "internalType": "address",
          "name": "sender",
          "type": "address"
        }
      ],
      "name": "RoleRevoked",
      "type": "event"
    },
    {
      "anonymous": false,
      "inputs": [
        {
          "indexed": true,
          "internalType": "address",
          "name": "operator",
          "type": "address"
        },
        {
          "indexed": true,
          "internalType": "address",
          "name": "from",
          "type": "address"
        },
        {
          "indexed": true,
          "internalType": "address",
          "name": "to",
          "type": "address"
        },
        {
          "indexed": false,
          "internalType": "uint256[]",
          "name": "ids",
          "type": "uint256[]"
        },
        {
          "indexed": false,
          "internalType": "uint256[]",
          "name": "values",
          "type": "uint256[]"
        }
      ],
      "name": "TransferBatch",
      "type": "event"
    },
    {
      "anonymous": false,
      "inputs": [
        {
          "indexed": true,
          "internalType": "address",
          "name": "operator",
          "type": "address"
        },
        {
          "indexed": true,
          "internalType": "address",
          "name": "from",
          "type": "address"
        },
        {
          "indexed": true,
          "internalType": "address",
          "name": "to",
          "type": "address"
        },
        {
          "indexed": false,
          "internalType": "uint256",
          "name": "id",
          "type": "uint256"
        },
        {
          "indexed": false,
          "internalType": "uint256",
          "name": "value",
          "type": "uint256"
        }
      ],
      "name": "TransferSingle",
      "type": "event"
    },
    {
      "anonymous": false,
      "inputs": [
        {
          "indexed": false,
          "internalType": "string",
          "name": "value",
          "type": "string"
        },
        {
          "indexed": true,
          "internalType": "uint256",
          "name": "id",
          "type": "uint256"
        }
      ],
      "name": "URI",
      "type": "event"
    },
    {
      "anonymous": false,
      "inputs": [
        {
          "indexed": false,
          "internalType": "address",
          "name": "account",
          "type": "address"
        }
      ],
      "name": "Unpaused",
      "type": "event"
    },
    {
      "inputs": [],
      "name": "DEFAULT_ADMIN_ROLE",
      "outputs": [
        {
          "internalType": "bytes32",
          "name": "",
          "type": "bytes32"
        }
      ],
      "stateMutability": "view",
      "type": "function"
    },
    {
      "inputs": [],
      "name": "MINTER_ROLE",
      "outputs": [
        {
          "internalType": "bytes32",
          "name": "",
          "type": "bytes32"
        }
      ],
      "stateMutability": "view",
      "type": "function"
    },
    {
      "inputs": [],
      "name": "PAUSER_ROLE",
      "outputs": [
        {
          "internalType": "bytes32",
          "name": "",
          "type": "bytes32"
        }
      ],
      "stateMutability": "view",
      "type": "function"
    },
    {
      "inputs": [
        {
          "internalType": "address",
          "name": "account",
          "type": "address"
        },
        {
          "internalType": "uint256",
          "name": "id",
          "type": "uint256"
        }
      ],
      "name": "balanceOf",
      "outputs": [
        {
          "internalType": "uint256",
          "name": "",
          "type": "uint256"
        }
      ],
      "stateMutability": "view",
      "type": "function"
    },
    {
      "inputs": [
        {
          "internalType": "address[]",
          "name": "accounts",
          "type": "address[]"
        },
        {
          "internalType": "uint256[]",
          "name": "ids",
          "type": "uint256[]"
        }
      ],
      "name": "balanceOfBatch",
      "outputs": [
        {
          "internalType": "uint256[]",
          "name": "",
          "type": "uint256[]"
        }
      ],
      "stateMutability": "view",
      "type": "function"
    },
    {
      "inputs": [
        {
          "internalType": "address",
          "name": "account",
          "type": "address"
        },
        {
          "internalType": "uint256",
          "name": "id",
          "type": "uint256"
        },
        {
          "internalType": "uint256",
          "name": "value",
          "type": "uint256"
        }
      ],
      "name": "burn",
      "outputs": [],
      "stateMutability": "nonpayable",
      "type": "function"
    },
    {
      "inputs": [
        {
          "internalType": "address",
          "name": "account",
          "type": "address"
        },
        {
          "internalType": "uint256[]",
          "name": "ids",
          "type": "uint256[]"
        },
        {
          "internalType": "uint256[]",
          "name": "values",
          "type": "uint256[]"
        }
      ],
      "name": "burnBatch",
      "outputs": [],
      "stateMutability": "nonpayable",
      "type": "function"
    },
    {
      "inputs": [],
      "name": "current_id",
      "outputs": [
        {
          "internalType": "uint256",
          "name": "",
          "type": "uint256"
        }
      ],
      "stateMutability": "view",
      "type": "function"
    },
    {
      "inputs": [
        {
          "internalType": "bytes32",
          "name": "role",
          "type": "bytes32"
        }
      ],
      "name": "getRoleAdmin",
      "outputs": [
        {
          "internalType": "bytes32",
          "name": "",
          "type": "bytes32"
        }
      ],
      "stateMutability": "view",
      "type": "function"
    },
    {
      "inputs": [
        {
          "internalType": "bytes32",
          "name": "role",
          "type": "bytes32"
        },
        {
          "internalType": "uint256",
          "name": "index",
          "type": "uint256"
        }
      ],
      "name": "getRoleMember",
      "outputs": [
        {
          "internalType": "address",
          "name": "",
          "type": "address"
        }
      ],
      "stateMutability": "view",
      "type": "function"
    },
    {
      "inputs": [
        {
          "internalType": "bytes32",
          "name": "role",
          "type": "bytes32"
        }
      ],
      "name": "getRoleMemberCount",
      "outputs": [
        {
          "internalType": "uint256",
          "name": "",
          "type": "uint256"
        }
      ],
      "stateMutability": "view",
      "type": "function"
    },
    {
      "inputs": [
        {
          "internalType": "uint256",
          "name": "id",
          "type": "uint256"
        }
      ],
      "name": "getToken",
      "outputs": [
        {
          "internalType": "address",
          "name": "",
          "type": "address"
        },
        {
          "internalType": "bool",
          "name": "",
          "type": "bool"
        },
        {
          "internalType": "uint256[]",
          "name": "",
          "type": "uint256[]"
        }
      ],
      "stateMutability": "view",
      "type": "function"
    },
    {
      "inputs": [
        {
          "internalType": "address",
          "name": "owner",
          "type": "address"
        },
        {
          "internalType": "uint256",
          "name": "id",
          "type": "uint256"
        }
      ],
      "name": "getTokenBalance",
      "outputs": [
        {
          "internalType": "uint256",
          "name": "",
          "type": "uint256"
        }
      ],
      "stateMutability": "view",
      "type": "function"
    },
    {
      "inputs": [
        {
          "internalType": "address",
          "name": "owner",
          "type": "address"
        }
      ],
      "name": "getTokenBalances",
      "outputs": [
        {
          "internalType": "uint256[]",
          "name": "",
          "type": "uint256[]"
        }
      ],
      "stateMutability": "view",
      "type": "function"
    },
    {
      "inputs": [
        {
          "internalType": "bytes32",
          "name": "role",
          "type": "bytes32"
        },
        {
          "internalType": "address",
          "name": "account",
          "type": "address"
        }
      ],
      "name": "grantRole",
      "outputs": [],
      "stateMutability": "nonpayable",
      "type": "function"
    },
    {
      "inputs": [
        {
          "internalType": "bytes32",
          "name": "role",
          "type": "bytes32"
        },
        {
          "internalType": "address",
          "name": "account",
          "type": "address"
        }
      ],
      "name": "hasRole",
      "outputs": [
        {
          "internalType": "bool",
          "name": "",
          "type": "bool"
        }
      ],
      "stateMutability": "view",
      "type": "function"
    },
    {
      "inputs": [
        {
          "internalType": "address",
          "name": "account",
          "type": "address"
        },
        {
          "internalType": "address",
          "name": "operator",
          "type": "address"
        }
      ],
      "name": "isApprovedForAll",
      "outputs": [
        {
          "internalType": "bool",
          "name": "",
          "type": "bool"
        }
      ],
      "stateMutability": "view",
      "type": "function"
    },
    {
      "inputs": [
        {
          "internalType": "address",
          "name": "to",
          "type": "address"
        },
        {
          "internalType": "uint256",
          "name": "amount",
          "type": "uint256"
        },
        {
          "internalType": "bool",
          "name": "certified",
          "type": "bool"
        },
        {
          "internalType": "uint256",
          "name": "social",
          "type": "uint256"
        },
        {
          "internalType": "uint256",
          "name": "environment",
          "type": "uint256"
        },
        {
          "internalType": "uint256",
          "name": "impact",
          "type": "uint256"
        },
        {
          "internalType": "uint256",
          "name": "booster",
          "type": "uint256"
        }
      ],
      "name": "mintWasteToken",
      "outputs": [
        {
          "internalType": "uint256",
          "name": "",
          "type": "uint256"
        }
      ],
      "stateMutability": "nonpayable",
      "type": "function"
    },
    {
      "inputs": [],
      "name": "pause",
      "outputs": [],
      "stateMutability": "nonpayable",
      "type": "function"
    },
    {
      "inputs": [],
      "name": "paused",
      "outputs": [
        {
          "internalType": "bool",
          "name": "",
          "type": "bool"
        }
      ],
      "stateMutability": "view",
      "type": "function"
    },
    {
      "inputs": [
        {
          "internalType": "bytes32",
          "name": "role",
          "type": "bytes32"
        },
        {
          "internalType": "address",
          "name": "account",
          "type": "address"
        }
      ],
      "name": "renounceRole",
      "outputs": [],
      "stateMutability": "nonpayable",
      "type": "function"
    },
    {
      "inputs": [
        {
          "internalType": "bytes32",
          "name": "role",
          "type": "bytes32"
        },
        {
          "internalType": "address",
          "name": "account",
          "type": "address"
        }
      ],
      "name": "revokeRole",
      "outputs": [],
      "stateMutability": "nonpayable",
      "type": "function"
    },
    {
      "inputs": [
        {
          "internalType": "address",
          "name": "from",
          "type": "address"
        },
        {
          "internalType": "address",
          "name": "to",
          "type": "address"
        },
        {
          "internalType": "uint256[]",
          "name": "ids",
          "type": "uint256[]"
        },
        {
          "internalType": "uint256[]",
          "name": "amounts",
          "type": "uint256[]"
        },
        {
          "internalType": "bytes",
          "name": "data",
          "type": "bytes"
        }
      ],
      "name": "safeBatchTransferFrom",
      "outputs": [],
      "stateMutability": "nonpayable",
      "type": "function"
    },
    {
      "inputs": [
        {
          "internalType": "address",
          "name": "from",
          "type": "address"
        },
        {
          "internalType": "address",
          "name": "to",
          "type": "address"
        },
        {
          "internalType": "uint256",
          "name": "id",
          "type": "uint256"
        },
        {
          "internalType": "uint256",
          "name": "amount",
          "type": "uint256"
        },
        {
          "internalType": "bytes",
          "name": "data",
          "type": "bytes"
        }
      ],
      "name": "safeTransferFrom",
      "outputs": [],
      "stateMutability": "nonpayable",
      "type": "function"
    },
    {
      "inputs": [
        {
          "internalType": "address",
          "name": "operator",
          "type": "address"
        },
        {
          "internalType": "bool",
          "name": "approved",
          "type": "bool"
        }
      ],
      "name": "setApprovalForAll",
      "outputs": [],
      "stateMutability": "nonpayable",
      "type": "function"
    },
    {
      "inputs": [
        {
          "internalType": "bytes4",
          "name": "interfaceId",
          "type": "bytes4"
        }
      ],
      "name": "supportsInterface",
      "outputs": [
        {
          "internalType": "bool",
          "name": "",
          "type": "bool"
        }
      ],
      "stateMutability": "view",
      "type": "function"
    },
    {
      "inputs": [
        {
          "internalType": "uint256",
          "name": "",
          "type": "uint256"
        }
      ],
      "name": "tokenList",
      "outputs": [
        {
          "internalType": "address",
          "name": "creator",
          "type": "address"
        },
        {
          "internalType": "bool",
          "name": "certified",
          "type": "bool"
        },
        {
          "internalType": "uint256",
          "name": "social",
          "type": "uint256"
        },
        {
          "internalType": "uint256",
          "name": "environment",
          "type": "uint256"
        },
        {
          "internalType": "uint256",
          "name": "impact",
          "type": "uint256"
        },
        {
          "internalType": "uint256",
          "name": "booster",
          "type": "uint256"
        }
      ],
      "stateMutability": "view",
      "type": "function"
    },
    {
      "inputs": [],
      "name": "unpause",
      "outputs": [],
      "stateMutability": "nonpayable",
      "type": "function"
    },
    {
      "inputs": [
        {
          "internalType": "uint256",
          "name": "",
          "type": "uint256"
        }
      ],
      "name": "uri",
      "outputs": [
        {
          "internalType": "string",
          "name": "",
          "type": "string"
        }
      ],
      "stateMutability": "view",
      "type": "function"
    }
  ],
  "bytecode": "0x60806040523480156200001157600080fd5b5060405162004bb838038062004bb8833981810160405260208110156200003757600080fd5b81019080805160405193929190846401000000008211156200005857600080fd5b838201915060208201858111156200006f57600080fd5b82518660018202830111640100000000821117156200008d57600080fd5b8083526020830192505050908051906020019080838360005b83811015620000c3578082015181840152602081019050620000a6565b50505050905090810190601f168015620000f15780820380516001836020036101000a031916815260200191505b5060405250505080620001116301ffc9a760e01b6200024560201b60201c565b62000122816200034e60201b60201c565b6200013a63d9b67a2660e01b6200024560201b60201c565b62000152630e89341c60e01b6200024560201b60201c565b506000600560006101000a81548160ff021916908315150217905550620001926000801b620001866200036a60201b60201c565b6200037260201b60201c565b620001e860405180807f4d494e5445525f524f4c45000000000000000000000000000000000000000000815250600b0190506040518091039020620001dc6200036a60201b60201c565b6200037260201b60201c565b6200023e60405180807f5041555345525f524f4c45000000000000000000000000000000000000000000815250600b0190506040518091039020620002326200036a60201b60201c565b6200037260201b60201c565b50620005af565b63ffffffff60e01b817bffffffffffffffffffffffffffffffffffffffffffffffffffffffff19161415620002e2576040517f08c379a000000000000000000000000000000000000000000000000000000000815260040180806020018281038252601c8152602001807f4552433136353a20696e76616c696420696e746572666163652069640000000081525060200191505060405180910390fd5b6001806000837bffffffffffffffffffffffffffffffffffffffffffffffffffffffff19167bffffffffffffffffffffffffffffffffffffffffffffffffffffffff1916815260200190815260200160002060006101000a81548160ff02191690831515021790555050565b80600490805190602001906200036692919062000500565b5050565b600033905090565b6200038482826200038860201b60201c565b5050565b620003b6816000808581526020019081526020016000206000016200042b60201b62003f801790919060201c565b156200042757620003cc6200036a60201b60201c565b73ffffffffffffffffffffffffffffffffffffffff168173ffffffffffffffffffffffffffffffffffffffff16837f2f8788117e7eff1d82e926ec794901d17c78024a50270940304540a733656f0d60405160405180910390a45b5050565b60006200045b836000018373ffffffffffffffffffffffffffffffffffffffff1660001b6200046360201b60201c565b905092915050565b6000620004778383620004dd60201b60201c565b620004d2578260000182908060018154018082558091505060019003906000526020600020016000909190919091505582600001805490508360010160008481526020019081526020016000208190555060019050620004d7565b600090505b92915050565b600080836001016000848152602001908152602001600020541415905092915050565b828054600181600116156101000203166002900490600052602060002090601f016020900481019282601f106200054357805160ff191683800117855562000574565b8280016001018555821562000574579182015b828111156200057357825182559160200191906001019062000556565b5b50905062000583919062000587565b5090565b620005ac91905b80821115620005a85760008160009055506001016200058e565b5090565b90565b6145f980620005bf6000396000f3fe608060405234801561001057600080fd5b50600436106101ce5760003560e01c80639010d07c11610104578063ca15c873116100a2578063e63ab1e911610071578063e63ab1e914610e84578063e985e9c514610ea2578063f242432a14610f1e578063f5298aca1461102d576101ce565b8063ca15c87314610d15578063d539139314610d57578063d547741f14610d75578063e4b50cb814610dc3576101ce565b80639ead7222116100de5780639ead722214610b7c578063a217fddf14610c11578063a22cb46514610c2f578063af7c706b14610c7f576101ce565b80639010d07c14610a8057806391d1485414610af8578063929ec45514610b5e576101ce565b806336568abe116101715780635c975abb1161014b5780635c975abb1461084f5780636b20c45414610871578063764f3aa8146109dd5780638456cb5914610a76576101ce565b806336568abe146106565780633f4ba83a146106a45780634e1273f4146106ae576101ce565b80630e89341c116101ad5780630e89341c146102fc578063248a9ca3146103a35780632eb2c2d6146103e55780632f2ff15d14610608576101ce565b8062fdd58e146101d357806301ffc9a7146102355780630916bae51461029a575b600080fd5b61021f600480360360408110156101e957600080fd5b81019080803573ffffffffffffffffffffffffffffffffffffffff16906020019092919080359060200190929190505050611085565b6040518082815260200191505060405180910390f35b6102806004803603602081101561024b57600080fd5b8101908080357bffffffffffffffffffffffffffffffffffffffffffffffffffffffff19169060200190929190505050611165565b604051808215151515815260200191505060405180910390f35b6102e6600480360360408110156102b057600080fd5b81019080803573ffffffffffffffffffffffffffffffffffffffff169060200190929190803590602001909291905050506111cd565b6040518082815260200191505060405180910390f35b6103286004803603602081101561031257600080fd5b8101908080359060200190929190505050611266565b6040518080602001828103825283818151815260200191508051906020019080838360005b8381101561036857808201518184015260208101905061034d565b50505050905090810190601f1680156103955780820380516001836020036101000a031916815260200191505b509250505060405180910390f35b6103cf600480360360208110156103b957600080fd5b810190808035906020019092919050505061130a565b6040518082815260200191505060405180910390f35b610606600480360360a08110156103fb57600080fd5b81019080803573ffffffffffffffffffffffffffffffffffffffff169060200190929190803573ffffffffffffffffffffffffffffffffffffffff1690602001909291908035906020019064010000000081111561045857600080fd5b82018360208201111561046a57600080fd5b8035906020019184602083028401116401000000008311171561048c57600080fd5b919080806020026020016040519081016040528093929190818152602001838360200280828437600081840152601f19601f820116905080830192505050505050509192919290803590602001906401000000008111156104ec57600080fd5b8201836020820111156104fe57600080fd5b8035906020019184602083028401116401000000008311171561052057600080fd5b919080806020026020016040519081016040528093929190818152602001838360200280828437600081840152601f19601f8201169050808301925050505050505091929192908035906020019064010000000081111561058057600080fd5b82018360208201111561059257600080fd5b803590602001918460018302840111640100000000831117156105b457600080fd5b91908080601f016020809104026020016040519081016040528093929190818152602001838380828437600081840152601f19601f820116905080830192505050505050509192919290505050611329565b005b6106546004803603604081101561061e57600080fd5b8101908080359060200190929190803573ffffffffffffffffffffffffffffffffffffffff1690602001909291905050506117b7565b005b6106a26004803603604081101561066c57600080fd5b8101908080359060200190929190803573ffffffffffffffffffffffffffffffffffffffff169060200190929190505050611840565b005b6106ac6118d9565b005b6107f8600480360360408110156106c457600080fd5b81019080803590602001906401000000008111156106e157600080fd5b8201836020820111156106f357600080fd5b8035906020019184602083028401116401000000008311171561071557600080fd5b919080806020026020016040519081016040528093929190818152602001838360200280828437600081840152601f19601f8201169050808301925050505050505091929192908035906020019064010000000081111561077557600080fd5b82018360208201111561078757600080fd5b803590602001918460208302840111640100000000831117156107a957600080fd5b919080806020026020016040519081016040528093929190818152602001838360200280828437600081840152601f19601f82011690508083019250505050505050919291929050505061197e565b6040518080602001828103825283818151815260200191508051906020019060200280838360005b8381101561083b578082015181840152602081019050610820565b505050509050019250505060405180910390f35b610857611b5c565b604051808215151515815260200191505060405180910390f35b6109db6004803603606081101561088757600080fd5b81019080803573ffffffffffffffffffffffffffffffffffffffff169060200190929190803590602001906401000000008111156108c457600080fd5b8201836020820111156108d657600080fd5b803590602001918460208302840111640100000000831117156108f857600080fd5b919080806020026020016040519081016040528093929190818152602001838360200280828437600081840152601f19601f8201169050808301925050505050505091929192908035906020019064010000000081111561095857600080fd5b82018360208201111561096a57600080fd5b8035906020019184602083028401116401000000008311171561098c57600080fd5b919080806020026020016040519081016040528093929190818152602001838360200280828437600081840152601f19601f820116905080830192505050505050509192919290505050611b73565b005b610a1f600480360360208110156109f357600080fd5b81019080803573ffffffffffffffffffffffffffffffffffffffff169060200190929190505050611c26565b6040518080602001828103825283818151815260200191508051906020019060200280838360005b83811015610a62578082015181840152602081019050610a47565b505050509050019250505060405180910390f35b610a7e611d31565b005b610ab660048036036040811015610a9657600080fd5b810190808035906020019092919080359060200190929190505050611dd6565b604051808273ffffffffffffffffffffffffffffffffffffffff1673ffffffffffffffffffffffffffffffffffffffff16815260200191505060405180910390f35b610b4460048036036040811015610b0e57600080fd5b8101908080359060200190929190803573ffffffffffffffffffffffffffffffffffffffff169060200190929190505050611e07565b604051808215151515815260200191505060405180910390f35b610b66611e38565b6040518082815260200191505060405180910390f35b610ba860048036036020811015610b9257600080fd5b8101908080359060200190929190505050611e3e565b604051808773ffffffffffffffffffffffffffffffffffffffff1673ffffffffffffffffffffffffffffffffffffffff16815260200186151515158152602001858152602001848152602001838152602001828152602001965050505050505060405180910390f35b610c19611ea7565b6040518082815260200191505060405180910390f35b610c7d60048036036040811015610c4557600080fd5b81019080803573ffffffffffffffffffffffffffffffffffffffff169060200190929190803515159060200190929190505050611eae565b005b610cff600480360360e0811015610c9557600080fd5b81019080803573ffffffffffffffffffffffffffffffffffffffff1690602001909291908035906020019092919080351515906020019092919080359060200190929190803590602001909291908035906020019092919080359060200190929190505050612049565b6040518082815260200191505060405180910390f35b610d4160048036036020811015610d2b57600080fd5b8101908080359060200190929190505050612213565b6040518082815260200191505060405180910390f35b610d5f612239565b6040518082815260200191505060405180910390f35b610dc160048036036040811015610d8b57600080fd5b8101908080359060200190929190803573ffffffffffffffffffffffffffffffffffffffff169060200190929190505050612272565b005b610def60048036036020811015610dd957600080fd5b81019080803590602001909291905050506122fb565b604051808473ffffffffffffffffffffffffffffffffffffffff1673ffffffffffffffffffffffffffffffffffffffff1681526020018315151515815260200180602001828103825283818151815260200191508051906020019060200280838360005b83811015610e6e578082015181840152602081019050610e53565b5050505090500194505050505060405180910390f35b610e8c6124e2565b6040518082815260200191505060405180910390f35b610f0460048036036040811015610eb857600080fd5b81019080803573ffffffffffffffffffffffffffffffffffffffff169060200190929190803573ffffffffffffffffffffffffffffffffffffffff16906020019092919050505061251b565b604051808215151515815260200191505060405180910390f35b61102b600480360360a0811015610f3457600080fd5b81019080803573ffffffffffffffffffffffffffffffffffffffff169060200190929190803573ffffffffffffffffffffffffffffffffffffffff169060200190929190803590602001909291908035906020019092919080359060200190640100000000811115610fa557600080fd5b820183602082011115610fb757600080fd5b80359060200191846001830284011164010000000083111715610fd957600080fd5b91908080601f016020809104026020016040519081016040528093929190818152602001838380828437600081840152601f19601f8201169050808301925050505050505091929192905050506125af565b005b6110836004803603606081101561104357600080fd5b81019080803573ffffffffffffffffffffffffffffffffffffffff1690602001909291908035906020019092919080359060200190929190505050612924565b005b60008073ffffffffffffffffffffffffffffffffffffffff168373ffffffffffffffffffffffffffffffffffffffff16141561110c576040517f08c379a000000000000000000000000000000000000000000000000000000000815260040180806020018281038252602b8152602001806142a5602b913960400191505060405180910390fd5b6002600083815260200190815260200160002060008473ffffffffffffffffffffffffffffffffffffffff1673ffffffffffffffffffffffffffffffffffffffff16815260200190815260200160002054905092915050565b600060016000837bffffffffffffffffffffffffffffffffffffffffffffffffffffffff19167bffffffffffffffffffffffffffffffffffffffffffffffffffffffff1916815260200190815260200160002060009054906101000a900460ff169050919050565b60008073ffffffffffffffffffffffffffffffffffffffff168373ffffffffffffffffffffffffffffffffffffffff161415611254576040517f08c379a00000000000000000000000000000000000000000000000000000000081526004018080602001828103825260318152602001806142d06031913960400191505060405180910390fd5b61125e8383611085565b905092915050565b606060048054600181600116156101000203166002900480601f0160208091040260200160405190810160405280929190818152602001828054600181600116156101000203166002900480156112fe5780601f106112d3576101008083540402835291602001916112fe565b820191906000526020600020905b8154815290600101906020018083116112e157829003601f168201915b50505050509050919050565b6000806000838152602001908152602001600020600201549050919050565b8151835114611383576040517f08c379a000000000000000000000000000000000000000000000000000000000815260040180806020018281038252602881526020018061454c6028913960400191505060405180910390fd5b600073ffffffffffffffffffffffffffffffffffffffff168473ffffffffffffffffffffffffffffffffffffffff161415611409576040517f08c379a00000000000000000000000000000000000000000000000000000000081526004018080602001828103825260258152602001806143aa6025913960400191505060405180910390fd5b6114116129d7565b73ffffffffffffffffffffffffffffffffffffffff168573ffffffffffffffffffffffffffffffffffffffff1614806114575750611456856114516129d7565b61251b565b5b6114ac576040517f08c379a00000000000000000000000000000000000000000000000000000000081526004018080602001828103825260328152602001806143cf6032913960400191505060405180910390fd5b60006114b66129d7565b90506114c68187878787876129df565b60008090505b845181101561169a5760008582815181106114e357fe5b6020026020010151905060008583815181106114fb57fe5b60200260200101519050611582816040518060600160405280602a815260200161445c602a91396002600086815260200190815260200160002060008d73ffffffffffffffffffffffffffffffffffffffff1673ffffffffffffffffffffffffffffffffffffffff168152602001908152602001600020546129f59092919063ffffffff16565b6002600084815260200190815260200160002060008b73ffffffffffffffffffffffffffffffffffffffff1673ffffffffffffffffffffffffffffffffffffffff16815260200190815260200160002081905550611639816002600085815260200190815260200160002060008b73ffffffffffffffffffffffffffffffffffffffff1673ffffffffffffffffffffffffffffffffffffffff16815260200190815260200160002054612ab590919063ffffffff16565b6002600084815260200190815260200160002060008a73ffffffffffffffffffffffffffffffffffffffff1673ffffffffffffffffffffffffffffffffffffffff1681526020019081526020016000208190555050508060010190506114cc565b508473ffffffffffffffffffffffffffffffffffffffff168673ffffffffffffffffffffffffffffffffffffffff168273ffffffffffffffffffffffffffffffffffffffff167f4a39dc06d4c0dbc64b70af90fd698a233a518aa5d07e595d983b8c0526c8f7fb8787604051808060200180602001838103835285818151815260200191508051906020019060200280838360005b8381101561174a57808201518184015260208101905061172f565b50505050905001838103825284818151815260200191508051906020019060200280838360005b8381101561178c578082015181840152602081019050611771565b5050505090500194505050505060405180910390a46117af818787878787612b3d565b505050505050565b6117dd600080848152602001908152602001600020600201546117d86129d7565b611e07565b611832576040517f08c379a000000000000000000000000000000000000000000000000000000000815260040180806020018281038252602f815260200180614276602f913960400191505060405180910390fd5b61183c8282612fb5565b5050565b6118486129d7565b73ffffffffffffffffffffffffffffffffffffffff168173ffffffffffffffffffffffffffffffffffffffff16146118cb576040517f08c379a000000000000000000000000000000000000000000000000000000000815260040180806020018281038252602f815260200180614595602f913960400191505060405180910390fd5b6118d58282613048565b5050565b61191f60405180807f5041555345525f524f4c45000000000000000000000000000000000000000000815250600b019050604051809103902061191a6129d7565b611e07565b611974576040517f08c379a000000000000000000000000000000000000000000000000000000000815260040180806020018281038252603b815260200180614486603b913960400191505060405180910390fd5b61197c6130db565b565b606081518351146119da576040517f08c379a00000000000000000000000000000000000000000000000000000000081526004018080602001828103825260298152602001806145236029913960400191505060405180910390fd5b60608351604051908082528060200260200182016040528015611a0c5781602001602082028038833980820191505090505b50905060008090505b8451811015611b5157600073ffffffffffffffffffffffffffffffffffffffff16858281518110611a4257fe5b602002602001015173ffffffffffffffffffffffffffffffffffffffff161415611ab7576040517f08c379a00000000000000000000000000000000000000000000000000000000081526004018080602001828103825260318152602001806142d06031913960400191505060405180910390fd5b60026000858381518110611ac757fe5b602002602001015181526020019081526020016000206000868381518110611aeb57fe5b602002602001015173ffffffffffffffffffffffffffffffffffffffff1673ffffffffffffffffffffffffffffffffffffffff16815260200190815260200160002054828281518110611b3a57fe5b602002602001018181525050806001019050611a15565b508091505092915050565b6000600560009054906101000a900460ff16905090565b611b7b6129d7565b73ffffffffffffffffffffffffffffffffffffffff168373ffffffffffffffffffffffffffffffffffffffff161480611bc15750611bc083611bbb6129d7565b61251b565b5b611c16576040517f08c379a00000000000000000000000000000000000000000000000000000000081526004018080602001828103825260298152602001806143516029913960400191505060405180910390fd5b611c218383836131e4565b505050565b6060600073ffffffffffffffffffffffffffffffffffffffff168273ffffffffffffffffffffffffffffffffffffffff161415611cae576040517f08c379a00000000000000000000000000000000000000000000000000000000081526004018080602001828103825260318152602001806142d06031913960400191505060405180910390fd5b6060600160065401604051908082528060200260200182016040528015611ce45781602001602082028038833980820191505090505b50905060008090505b600160065401811015611d2757611d048482611085565b828281518110611d1057fe5b602002602001018181525050806001019050611ced565b5080915050919050565b611d7760405180807f5041555345525f524f4c45000000000000000000000000000000000000000000815250600b0190506040518091039020611d726129d7565b611e07565b611dcc576040517f08c379a00000000000000000000000000000000000000000000000000000000081526004018080602001828103825260398152602001806144c16039913960400191505060405180910390fd5b611dd4613522565b565b6000611dff8260008086815260200190815260200160002060000161362c90919063ffffffff16565b905092915050565b6000611e308260008086815260200190815260200160002060000161364690919063ffffffff16565b905092915050565b60065481565b60076020528060005260406000206000915090508060000160009054906101000a900473ffffffffffffffffffffffffffffffffffffffff16908060000160149054906101000a900460ff16908060010154908060020154908060030154908060040154905086565b6000801b81565b8173ffffffffffffffffffffffffffffffffffffffff16611ecd6129d7565b73ffffffffffffffffffffffffffffffffffffffff161415611f3a576040517f08c379a00000000000000000000000000000000000000000000000000000000081526004018080602001828103825260298152602001806144fa6029913960400191505060405180910390fd5b8060036000611f476129d7565b73ffffffffffffffffffffffffffffffffffffffff1673ffffffffffffffffffffffffffffffffffffffff16815260200190815260200160002060008473ffffffffffffffffffffffffffffffffffffffff1673ffffffffffffffffffffffffffffffffffffffff16815260200190815260200160002060006101000a81548160ff0219169083151502179055508173ffffffffffffffffffffffffffffffffffffffff16611ff46129d7565b73ffffffffffffffffffffffffffffffffffffffff167f17307eab39ab6107e8899845ad3d59bd9653f200f220920489ca2b5937696c3183604051808215151515815260200191505060405180910390a35050565b600061209160405180807f4d494e5445525f524f4c45000000000000000000000000000000000000000000815250600b019050604051809103902061208c6129d7565b611e07565b6120e6576040517f08c379a00000000000000000000000000000000000000000000000000000000081526004018080602001828103825260388152602001806144246038913960400191505060405180910390fd5b6040518060c001604052808973ffffffffffffffffffffffffffffffffffffffff16815260200187151581526020018681526020018581526020018481526020018381525060076000600654815260200190815260200160002060008201518160000160006101000a81548173ffffffffffffffffffffffffffffffffffffffff021916908373ffffffffffffffffffffffffffffffffffffffff16021790555060208201518160000160146101000a81548160ff02191690831515021790555060408201518160010155606082015181600201556080820151816003015560a082015181600401559050506121ef886006548960405180602001604052806000815250613676565b60016006600082825401925050819055506001600654039050979650505050505050565b6000612232600080848152602001908152602001600020600001613879565b9050919050565b60405180807f4d494e5445525f524f4c45000000000000000000000000000000000000000000815250600b019050604051809103902081565b612298600080848152602001908152602001600020600201546122936129d7565b611e07565b6122ed576040517f08c379a000000000000000000000000000000000000000000000000000000000815260040180806020018281038252603081526020018061437a6030913960400191505060405180910390fd5b6122f78282613048565b5050565b60008060606006548410612377576040517f08c379a00000000000000000000000000000000000000000000000000000000081526004018080602001828103825260158152602001807f696420646f6573206e6f7420657869737420796574000000000000000000000081525060200191505060405180910390fd5b60006007600086815260200190815260200160002060000160009054906101000a900473ffffffffffffffffffffffffffffffffffffffff16905060006007600087815260200190815260200160002060000160149054906101000a900460ff1690506060600460405190808252806020026020018201604052801561240c5781602001602082028038833980820191505090505b50905060076000888152602001908152602001600020600101548160008151811061243357fe5b60200260200101818152505060076000888152602001908152602001600020600201548160018151811061246357fe5b60200260200101818152505060076000888152602001908152602001600020600301548160028151811061249357fe5b6020026020010181815250506007600088815260200190815260200160002060040154816003815181106124c357fe5b6020026020010181815250508282829550955095505050509193909250565b60405180807f5041555345525f524f4c45000000000000000000000000000000000000000000815250600b019050604051809103902081565b6000600360008473ffffffffffffffffffffffffffffffffffffffff1673ffffffffffffffffffffffffffffffffffffffff16815260200190815260200160002060008373ffffffffffffffffffffffffffffffffffffffff1673ffffffffffffffffffffffffffffffffffffffff16815260200190815260200160002060009054906101000a900460ff16905092915050565b600073ffffffffffffffffffffffffffffffffffffffff168473ffffffffffffffffffffffffffffffffffffffff161415612635576040517f08c379a00000000000000000000000000000000000000000000000000000000081526004018080602001828103825260258152602001806143aa6025913960400191505060405180910390fd5b61263d6129d7565b73ffffffffffffffffffffffffffffffffffffffff168573ffffffffffffffffffffffffffffffffffffffff16148061268357506126828561267d6129d7565b61251b565b5b6126d8576040517f08c379a00000000000000000000000000000000000000000000000000000000081526004018080602001828103825260298152602001806143516029913960400191505060405180910390fd5b60006126e26129d7565b90506127028187876126f38861388e565b6126fc8861388e565b876129df565b61277f836040518060600160405280602a815260200161445c602a91396002600088815260200190815260200160002060008a73ffffffffffffffffffffffffffffffffffffffff1673ffffffffffffffffffffffffffffffffffffffff168152602001908152602001600020546129f59092919063ffffffff16565b6002600086815260200190815260200160002060008873ffffffffffffffffffffffffffffffffffffffff1673ffffffffffffffffffffffffffffffffffffffff16815260200190815260200160002081905550612836836002600087815260200190815260200160002060008873ffffffffffffffffffffffffffffffffffffffff1673ffffffffffffffffffffffffffffffffffffffff16815260200190815260200160002054612ab590919063ffffffff16565b6002600086815260200190815260200160002060008773ffffffffffffffffffffffffffffffffffffffff1673ffffffffffffffffffffffffffffffffffffffff168152602001908152602001600020819055508473ffffffffffffffffffffffffffffffffffffffff168673ffffffffffffffffffffffffffffffffffffffff168273ffffffffffffffffffffffffffffffffffffffff167fc3d58168c5ae7397731d063d5bbf3d657854427343f4c083240f7aacaa2d0f628787604051808381526020018281526020019250505060405180910390a461291c8187878787876138e7565b505050505050565b61292c6129d7565b73ffffffffffffffffffffffffffffffffffffffff168373ffffffffffffffffffffffffffffffffffffffff16148061297257506129718361296c6129d7565b61251b565b5b6129c7576040517f08c379a00000000000000000000000000000000000000000000000000000000081526004018080602001828103825260298152602001806143516029913960400191505060405180910390fd5b6129d2838383613cdd565b505050565b600033905090565b6129ed868686868686613ef9565b505050505050565b6000838311158290612aa2576040517f08c379a00000000000000000000000000000000000000000000000000000000081526004018080602001828103825283818151815260200191508051906020019080838360005b83811015612a67578082015181840152602081019050612a4c565b50505050905090810190601f168015612a945780820380516001836020036101000a031916815260200191505b509250505060405180910390fd5b5060008385039050809150509392505050565b600080828401905083811015612b33576040517f08c379a000000000000000000000000000000000000000000000000000000000815260040180806020018281038252601b8152602001807f536166654d6174683a206164646974696f6e206f766572666c6f77000000000081525060200191505060405180910390fd5b8091505092915050565b612b5c8473ffffffffffffffffffffffffffffffffffffffff16613f6d565b15612fad578373ffffffffffffffffffffffffffffffffffffffff1663bc197c8187878686866040518663ffffffff1660e01b8152600401808673ffffffffffffffffffffffffffffffffffffffff1673ffffffffffffffffffffffffffffffffffffffff1681526020018573ffffffffffffffffffffffffffffffffffffffff1673ffffffffffffffffffffffffffffffffffffffff168152602001806020018060200180602001848103845287818151815260200191508051906020019060200280838360005b83811015612c40578082015181840152602081019050612c25565b50505050905001848103835286818151815260200191508051906020019060200280838360005b83811015612c82578082015181840152602081019050612c67565b50505050905001848103825285818151815260200191508051906020019080838360005b83811015612cc1578082015181840152602081019050612ca6565b50505050905090810190601f168015612cee5780820380516001836020036101000a031916815260200191505b5098505050505050505050602060405180830381600087803b158015612d1357600080fd5b505af1925050508015612d4757506040513d6020811015612d3357600080fd5b810190808051906020019092919050505060015b612f0e576000604051905060008152600115612e105760443d1015612d6f5760009050612e10565b60046000803e60005160e01c6308c379a08114612d90576000915050612e10565b60043d036004833e81513d602482011167ffffffffffffffff82111715612dbc57600092505050612e10565b808301805167ffffffffffffffff811115612dde576000945050505050612e10565b8060208301013d8601811115612dfc57600095505050505050612e10565b601f19601f82011660405282955050505050505b80612e1b5750612ebd565b806040517f08c379a00000000000000000000000000000000000000000000000000000000081526004018080602001828103825283818151815260200191508051906020019080838360005b83811015612e82578082015181840152602081019050612e67565b50505050905090810190601f168015612eaf5780820380516001836020036101000a031916815260200191505b509250505060405180910390fd5b6040517f08c379a00000000000000000000000000000000000000000000000000000000081526004018080602001828103825260348152602001806141f86034913960400191505060405180910390fd5b63bc197c8160e01b7bffffffffffffffffffffffffffffffffffffffffffffffffffffffff1916817bffffffffffffffffffffffffffffffffffffffffffffffffffffffff191614612fab576040517f08c379a000000000000000000000000000000000000000000000000000000000815260040180806020018281038252602881526020018061424e6028913960400191505060405180910390fd5b505b505050505050565b612fdc81600080858152602001908152602001600020600001613f8090919063ffffffff16565b1561304457612fe96129d7565b73ffffffffffffffffffffffffffffffffffffffff168173ffffffffffffffffffffffffffffffffffffffff16837f2f8788117e7eff1d82e926ec794901d17c78024a50270940304540a733656f0d60405160405180910390a45b5050565b61306f81600080858152602001908152602001600020600001613fb090919063ffffffff16565b156130d75761307c6129d7565b73ffffffffffffffffffffffffffffffffffffffff168173ffffffffffffffffffffffffffffffffffffffff16837ff6391f5c32d9c69d2a47ea670b442974b53935d1edc7fd64eb21e047a839171b60405160405180910390a45b5050565b600560009054906101000a900460ff1661315d576040517f08c379a00000000000000000000000000000000000000000000000000000000081526004018080602001828103825260148152602001807f5061757361626c653a206e6f742070617573656400000000000000000000000081525060200191505060405180910390fd5b6000600560006101000a81548160ff0219169083151502179055507f5db9ee0a495bf2e6ff9c91a7834c1ba4fdd244a5e8aa4e537bd38aeae4b073aa6131a16129d7565b604051808273ffffffffffffffffffffffffffffffffffffffff1673ffffffffffffffffffffffffffffffffffffffff16815260200191505060405180910390a1565b600073ffffffffffffffffffffffffffffffffffffffff168373ffffffffffffffffffffffffffffffffffffffff16141561326a576040517f08c379a00000000000000000000000000000000000000000000000000000000081526004018080602001828103825260238152602001806144016023913960400191505060405180910390fd5b80518251146132c4576040517f08c379a000000000000000000000000000000000000000000000000000000000815260040180806020018281038252602881526020018061454c6028913960400191505060405180910390fd5b60006132ce6129d7565b90506132ee818560008686604051806020016040528060008152506129df565b60008090505b8351811015613414576133a083828151811061330c57fe5b6020026020010151604051806060016040528060248152602001614301602491396002600088868151811061333d57fe5b6020026020010151815260200190815260200160002060008973ffffffffffffffffffffffffffffffffffffffff1673ffffffffffffffffffffffffffffffffffffffff168152602001908152602001600020546129f59092919063ffffffff16565b600260008684815181106133b057fe5b6020026020010151815260200190815260200160002060008773ffffffffffffffffffffffffffffffffffffffff1673ffffffffffffffffffffffffffffffffffffffff1681526020019081526020016000208190555080806001019150506132f4565b50600073ffffffffffffffffffffffffffffffffffffffff168473ffffffffffffffffffffffffffffffffffffffff168273ffffffffffffffffffffffffffffffffffffffff167f4a39dc06d4c0dbc64b70af90fd698a233a518aa5d07e595d983b8c0526c8f7fb8686604051808060200180602001838103835285818151815260200191508051906020019060200280838360005b838110156134c55780820151818401526020810190506134aa565b50505050905001838103825284818151815260200191508051906020019060200280838360005b838110156135075780820151818401526020810190506134ec565b5050505090500194505050505060405180910390a450505050565b600560009054906101000a900460ff16156135a5576040517f08c379a00000000000000000000000000000000000000000000000000000000081526004018080602001828103825260108152602001807f5061757361626c653a207061757365640000000000000000000000000000000081525060200191505060405180910390fd5b6001600560006101000a81548160ff0219169083151502179055507f62e78cea01bee320cd4e420270b5ea74000d11b0c9f74754ebdbfc544b05a2586135e96129d7565b604051808273ffffffffffffffffffffffffffffffffffffffff1673ffffffffffffffffffffffffffffffffffffffff16815260200191505060405180910390a1565b600061363b8360000183613fe0565b60001c905092915050565b600061366e836000018373ffffffffffffffffffffffffffffffffffffffff1660001b614063565b905092915050565b600073ffffffffffffffffffffffffffffffffffffffff168473ffffffffffffffffffffffffffffffffffffffff1614156136fc576040517f08c379a00000000000000000000000000000000000000000000000000000000081526004018080602001828103825260218152602001806145746021913960400191505060405180910390fd5b60006137066129d7565b9050613727816000876137188861388e565b6137218861388e565b876129df565b61378a836002600087815260200190815260200160002060008873ffffffffffffffffffffffffffffffffffffffff1673ffffffffffffffffffffffffffffffffffffffff16815260200190815260200160002054612ab590919063ffffffff16565b6002600086815260200190815260200160002060008773ffffffffffffffffffffffffffffffffffffffff1673ffffffffffffffffffffffffffffffffffffffff168152602001908152602001600020819055508473ffffffffffffffffffffffffffffffffffffffff16600073ffffffffffffffffffffffffffffffffffffffff168273ffffffffffffffffffffffffffffffffffffffff167fc3d58168c5ae7397731d063d5bbf3d657854427343f4c083240f7aacaa2d0f628787604051808381526020018281526020019250505060405180910390a4613872816000878787876138e7565b5050505050565b600061388782600001614086565b9050919050565b60608060016040519080825280602002602001820160405280156138c15781602001602082028038833980820191505090505b50905082816000815181106138d257fe5b60200260200101818152505080915050919050565b6139068473ffffffffffffffffffffffffffffffffffffffff16613f6d565b15613cd5578373ffffffffffffffffffffffffffffffffffffffff1663f23a6e6187878686866040518663ffffffff1660e01b8152600401808673ffffffffffffffffffffffffffffffffffffffff1673ffffffffffffffffffffffffffffffffffffffff1681526020018573ffffffffffffffffffffffffffffffffffffffff1673ffffffffffffffffffffffffffffffffffffffff16815260200184815260200183815260200180602001828103825283818151815260200191508051906020019080838360005b838110156139eb5780820151818401526020810190506139d0565b50505050905090810190601f168015613a185780820380516001836020036101000a031916815260200191505b509650505050505050602060405180830381600087803b158015613a3b57600080fd5b505af1925050508015613a6f57506040513d6020811015613a5b57600080fd5b810190808051906020019092919050505060015b613c36576000604051905060008152600115613b385760443d1015613a975760009050613b38565b60046000803e60005160e01c6308c379a08114613ab8576000915050613b38565b60043d036004833e81513d602482011167ffffffffffffffff82111715613ae457600092505050613b38565b808301805167ffffffffffffffff811115613b06576000945050505050613b38565b8060208301013d8601811115613b2457600095505050505050613b38565b601f19601f82011660405282955050505050505b80613b435750613be5565b806040517f08c379a00000000000000000000000000000000000000000000000000000000081526004018080602001828103825283818151815260200191508051906020019080838360005b83811015613baa578082015181840152602081019050613b8f565b50505050905090810190601f168015613bd75780820380516001836020036101000a031916815260200191505b509250505060405180910390fd5b6040517f08c379a00000000000000000000000000000000000000000000000000000000081526004018080602001828103825260348152602001806141f86034913960400191505060405180910390fd5b63f23a6e6160e01b7bffffffffffffffffffffffffffffffffffffffffffffffffffffffff1916817bffffffffffffffffffffffffffffffffffffffffffffffffffffffff191614613cd3576040517f08c379a000000000000000000000000000000000000000000000000000000000815260040180806020018281038252602881526020018061424e6028913960400191505060405180910390fd5b505b505050505050565b600073ffffffffffffffffffffffffffffffffffffffff168373ffffffffffffffffffffffffffffffffffffffff161415613d63576040517f08c379a00000000000000000000000000000000000000000000000000000000081526004018080602001828103825260238152602001806144016023913960400191505060405180910390fd5b6000613d6d6129d7565b9050613d9d81856000613d7f8761388e565b613d888761388e565b604051806020016040528060008152506129df565b613e1a82604051806060016040528060248152602001614301602491396002600087815260200190815260200160002060008873ffffffffffffffffffffffffffffffffffffffff1673ffffffffffffffffffffffffffffffffffffffff168152602001908152602001600020546129f59092919063ffffffff16565b6002600085815260200190815260200160002060008673ffffffffffffffffffffffffffffffffffffffff1673ffffffffffffffffffffffffffffffffffffffff16815260200190815260200160002081905550600073ffffffffffffffffffffffffffffffffffffffff168473ffffffffffffffffffffffffffffffffffffffff168273ffffffffffffffffffffffffffffffffffffffff167fc3d58168c5ae7397731d063d5bbf3d657854427343f4c083240f7aacaa2d0f628686604051808381526020018281526020019250505060405180910390a450505050565b613f07868686868686614097565b613f0f611b5c565b15613f65576040517f08c379a000000000000000000000000000000000000000000000000000000000815260040180806020018281038252602c815260200180614325602c913960400191505060405180910390fd5b505050505050565b600080823b905060008111915050919050565b6000613fa8836000018373ffffffffffffffffffffffffffffffffffffffff1660001b61409f565b905092915050565b6000613fd8836000018373ffffffffffffffffffffffffffffffffffffffff1660001b61410f565b905092915050565b600081836000018054905011614041576040517f08c379a000000000000000000000000000000000000000000000000000000000815260040180806020018281038252602281526020018061422c6022913960400191505060405180910390fd5b82600001828154811061405057fe5b9060005260206000200154905092915050565b600080836001016000848152602001908152602001600020541415905092915050565b600081600001805490509050919050565b505050505050565b60006140ab8383614063565b614104578260000182908060018154018082558091505060019003906000526020600020016000909190919091505582600001805490508360010160008481526020019081526020016000208190555060019050614109565b600090505b92915050565b600080836001016000848152602001908152602001600020549050600081146141eb576000600182039050600060018660000180549050039050600086600001828154811061415a57fe5b906000526020600020015490508087600001848154811061417757fe5b90600052602060002001819055506001830187600101600083815260200190815260200160002081905550866000018054806141af57fe5b600190038181906000526020600020016000905590558660010160008781526020019081526020016000206000905560019450505050506141f1565b60009150505b9291505056fe455243313135353a207472616e7366657220746f206e6f6e2045524331313535526563656976657220696d706c656d656e746572456e756d657261626c655365743a20696e646578206f7574206f6620626f756e6473455243313135353a204552433131353552656365697665722072656a656374656420746f6b656e73416363657373436f6e74726f6c3a2073656e646572206d75737420626520616e2061646d696e20746f206772616e74455243313135353a2062616c616e636520717565727920666f7220746865207a65726f2061646472657373455243313135353a2062617463682062616c616e636520717565727920666f7220746865207a65726f2061646472657373455243313135353a206275726e20616d6f756e7420657863656564732062616c616e6365455243313135355061757361626c653a20746f6b656e207472616e73666572207768696c6520706175736564455243313135353a2063616c6c6572206973206e6f74206f776e6572206e6f7220617070726f766564416363657373436f6e74726f6c3a2073656e646572206d75737420626520616e2061646d696e20746f207265766f6b65455243313135353a207472616e7366657220746f20746865207a65726f2061646472657373455243313135353a207472616e736665722063616c6c6572206973206e6f74206f776e6572206e6f7220617070726f766564455243313135353a206275726e2066726f6d20746865207a65726f2061646472657373455243313135355072657365744d696e7465725061757365723a206d7573742068617665206d696e74657220726f6c6520746f206d696e74455243313135353a20696e73756666696369656e742062616c616e636520666f72207472616e73666572455243313135355072657365744d696e7465725061757365723a206d75737420686176652070617573657220726f6c6520746f20756e7061757365455243313135355072657365744d696e7465725061757365723a206d75737420686176652070617573657220726f6c6520746f207061757365455243313135353a2073657474696e6720617070726f76616c2073746174757320666f722073656c66455243313135353a206163636f756e747320616e6420696473206c656e677468206d69736d61746368455243313135353a2069647320616e6420616d6f756e7473206c656e677468206d69736d61746368455243313135353a206d696e7420746f20746865207a65726f2061646472657373416363657373436f6e74726f6c3a2063616e206f6e6c792072656e6f756e636520726f6c657320666f722073656c66a2646970667358221220d31368ff055cfcf3abd91108598d9d1306dc5368fd5c18651964139ee723f3f064736f6c63430006020033",
  "linkReferences": {},
  "deployedLinkReferences": {}
}