{
  "_format": "hh-sol-artifact-1",
  "contractName": "ERC1155Collectable",
  "sourceName": "contracts/ERC1155Collectable.sol",
  "abi": [
    {
      "inputs": [
        {
          "internalType": "string",
          "name": "uri",
          "type": "string"
        }
      ],
      "stateMutability": "nonpayable",
      "type": "constructor"
    },
    {
      "anonymous": false,
      "inputs": [
        {
          "indexed": true,
          "internalType": "address",
          "name": "account",
          "type": "address"
        },
        {
          "indexed": true,
          "internalType": "address",
          "name": "operator",
          "type": "address"
        },
        {
          "indexed": false,
          "internalType": "bool",
          "name": "approved",
          "type": "bool"
        }
      ],
      "name": "ApprovalForAll",
      "type": "event"
    },
    {
      "anonymous": false,
      "inputs": [
        {
          "indexed": false,
          "internalType": "address",
          "name": "account",
          "type": "address"
        }
      ],
      "name": "Paused",
      "type": "event"
    },
    {
      "anonymous": false,
      "inputs": [
        {
          "indexed": true,
          "internalType": "bytes32",
          "name": "role",
          "type": "bytes32"
        },
        {
          "indexed": true,
          "internalType": "bytes32",
          "name": "previousAdminRole",
          "type": "bytes32"
        },
        {
          "indexed": true,
          "internalType": "bytes32",
          "name": "newAdminRole",
          "type": "bytes32"
        }
      ],
      "name": "RoleAdminChanged",
      "type": "event"
    },
    {
      "anonymous": false,
      "inputs": [
        {
          "indexed": true,
          "internalType": "bytes32",
          "name": "role",
          "type": "bytes32"
        },
        {
          "indexed": true,
          "internalType": "address",
          "name": "account",
          "type": "address"
        },
        {
          "indexed": true,
          "internalType": "address",
          "name": "sender",
          "type": "address"
        }
      ],
      "name": "RoleGranted",
      "type": "event"
    },
    {
      "anonymous": false,
      "inputs": [
        {
          "indexed": true,
          "internalType": "bytes32",
          "name": "role",
          "type": "bytes32"
        },
        {
          "indexed": true,
          "internalType": "address",
          "name": "account",
          "type": "address"
        },
        {
          "indexed": true,
          "internalType": "address",
          "name": "sender",
          "type": "address"
        }
      ],
      "name": "RoleRevoked",
      "type": "event"
    },
    {
      "anonymous": false,
      "inputs": [
        {
          "indexed": true,
          "internalType": "address",
          "name": "operator",
          "type": "address"
        },
        {
          "indexed": true,
          "internalType": "address",
          "name": "from",
          "type": "address"
        },
        {
          "indexed": true,
          "internalType": "address",
          "name": "to",
          "type": "address"
        },
        {
          "indexed": false,
          "internalType": "uint256[]",
          "name": "ids",
          "type": "uint256[]"
        },
        {
          "indexed": false,
          "internalType": "uint256[]",
          "name": "values",
          "type": "uint256[]"
        }
      ],
      "name": "TransferBatch",
      "type": "event"
    },
    {
      "anonymous": false,
      "inputs": [
        {
          "indexed": true,
          "internalType": "address",
          "name": "operator",
          "type": "address"
        },
        {
          "indexed": true,
          "internalType": "address",
          "name": "from",
          "type": "address"
        },
        {
          "indexed": true,
          "internalType": "address",
          "name": "to",
          "type": "address"
        },
        {
          "indexed": false,
          "internalType": "uint256",
          "name": "id",
          "type": "uint256"
        },
        {
          "indexed": false,
          "internalType": "uint256",
          "name": "value",
          "type": "uint256"
        }
      ],
      "name": "TransferSingle",
      "type": "event"
    },
    {
      "anonymous": false,
      "inputs": [
        {
          "indexed": false,
          "internalType": "string",
          "name": "value",
          "type": "string"
        },
        {
          "indexed": true,
          "internalType": "uint256",
          "name": "id",
          "type": "uint256"
        }
      ],
      "name": "URI",
      "type": "event"
    },
    {
      "anonymous": false,
      "inputs": [
        {
          "indexed": false,
          "internalType": "address",
          "name": "account",
          "type": "address"
        }
      ],
      "name": "Unpaused",
      "type": "event"
    },
    {
      "inputs": [],
      "name": "DEFAULT_ADMIN_ROLE",
      "outputs": [
        {
          "internalType": "bytes32",
          "name": "",
          "type": "bytes32"
        }
      ],
      "stateMutability": "view",
      "type": "function"
    },
    {
      "inputs": [],
      "name": "MINTER_ROLE",
      "outputs": [
        {
          "internalType": "bytes32",
          "name": "",
          "type": "bytes32"
        }
      ],
      "stateMutability": "view",
      "type": "function"
    },
    {
      "inputs": [],
      "name": "PAUSER_ROLE",
      "outputs": [
        {
          "internalType": "bytes32",
          "name": "",
          "type": "bytes32"
        }
      ],
      "stateMutability": "view",
      "type": "function"
    },
    {
      "inputs": [
        {
          "internalType": "address",
          "name": "account",
          "type": "address"
        },
        {
          "internalType": "uint256",
          "name": "id",
          "type": "uint256"
        }
      ],
      "name": "balanceOf",
      "outputs": [
        {
          "internalType": "uint256",
          "name": "",
          "type": "uint256"
        }
      ],
      "stateMutability": "view",
      "type": "function"
    },
    {
      "inputs": [
        {
          "internalType": "address[]",
          "name": "accounts",
          "type": "address[]"
        },
        {
          "internalType": "uint256[]",
          "name": "ids",
          "type": "uint256[]"
        }
      ],
      "name": "balanceOfBatch",
      "outputs": [
        {
          "internalType": "uint256[]",
          "name": "",
          "type": "uint256[]"
        }
      ],
      "stateMutability": "view",
      "type": "function"
    },
    {
      "inputs": [
        {
          "internalType": "address",
          "name": "account",
          "type": "address"
        },
        {
          "internalType": "uint256",
          "name": "id",
          "type": "uint256"
        },
        {
          "internalType": "uint256",
          "name": "value",
          "type": "uint256"
        }
      ],
      "name": "burn",
      "outputs": [],
      "stateMutability": "nonpayable",
      "type": "function"
    },
    {
      "inputs": [
        {
          "internalType": "address",
          "name": "account",
          "type": "address"
        },
        {
          "internalType": "uint256[]",
          "name": "ids",
          "type": "uint256[]"
        },
        {
          "internalType": "uint256[]",
          "name": "values",
          "type": "uint256[]"
        }
      ],
      "name": "burnBatch",
      "outputs": [],
      "stateMutability": "nonpayable",
      "type": "function"
    },
    {
      "inputs": [],
      "name": "currentId",
      "outputs": [
        {
          "internalType": "uint256",
          "name": "",
          "type": "uint256"
        }
      ],
      "stateMutability": "view",
      "type": "function"
    },
    {
      "inputs": [
        {
          "internalType": "bytes32",
          "name": "role",
          "type": "bytes32"
        }
      ],
      "name": "getRoleAdmin",
      "outputs": [
        {
          "internalType": "bytes32",
          "name": "",
          "type": "bytes32"
        }
      ],
      "stateMutability": "view",
      "type": "function"
    },
    {
      "inputs": [
        {
          "internalType": "bytes32",
          "name": "role",
          "type": "bytes32"
        },
        {
          "internalType": "uint256",
          "name": "index",
          "type": "uint256"
        }
      ],
      "name": "getRoleMember",
      "outputs": [
        {
          "internalType": "address",
          "name": "",
          "type": "address"
        }
      ],
      "stateMutability": "view",
      "type": "function"
    },
    {
      "inputs": [
        {
          "internalType": "bytes32",
          "name": "role",
          "type": "bytes32"
        }
      ],
      "name": "getRoleMemberCount",
      "outputs": [
        {
          "internalType": "uint256",
          "name": "",
          "type": "uint256"
        }
      ],
      "stateMutability": "view",
      "type": "function"
    },
    {
      "inputs": [
        {
          "internalType": "uint256",
          "name": "id",
          "type": "uint256"
        }
      ],
      "name": "getToken",
      "outputs": [
        {
          "internalType": "address",
          "name": "",
          "type": "address"
        },
        {
          "internalType": "bool",
          "name": "",
          "type": "bool"
        },
        {
          "internalType": "uint256[]",
          "name": "",
          "type": "uint256[]"
        }
      ],
      "stateMutability": "view",
      "type": "function"
    },
    {
      "inputs": [
        {
          "internalType": "address",
          "name": "owner",
          "type": "address"
        },
        {
          "internalType": "uint256",
          "name": "id",
          "type": "uint256"
        }
      ],
      "name": "getTokenBalance",
      "outputs": [
        {
          "internalType": "uint256",
          "name": "",
          "type": "uint256"
        }
      ],
      "stateMutability": "view",
      "type": "function"
    },
    {
      "inputs": [
        {
          "internalType": "address",
          "name": "owner",
          "type": "address"
        }
      ],
      "name": "getTokenBalances",
      "outputs": [
        {
          "internalType": "uint256[]",
          "name": "",
          "type": "uint256[]"
        }
      ],
      "stateMutability": "view",
      "type": "function"
    },
    {
      "inputs": [
        {
          "internalType": "bytes32",
          "name": "role",
          "type": "bytes32"
        },
        {
          "internalType": "address",
          "name": "account",
          "type": "address"
        }
      ],
      "name": "grantRole",
      "outputs": [],
      "stateMutability": "nonpayable",
      "type": "function"
    },
    {
      "inputs": [
        {
          "internalType": "bytes32",
          "name": "role",
          "type": "bytes32"
        },
        {
          "internalType": "address",
          "name": "account",
          "type": "address"
        }
      ],
      "name": "hasRole",
      "outputs": [
        {
          "internalType": "bool",
          "name": "",
          "type": "bool"
        }
      ],
      "stateMutability": "view",
      "type": "function"
    },
    {
      "inputs": [
        {
          "internalType": "address",
          "name": "account",
          "type": "address"
        },
        {
          "internalType": "address",
          "name": "operator",
          "type": "address"
        }
      ],
      "name": "isApprovedForAll",
      "outputs": [
        {
          "internalType": "bool",
          "name": "",
          "type": "bool"
        }
      ],
      "stateMutability": "view",
      "type": "function"
    },
    {
      "inputs": [
        {
          "internalType": "address",
          "name": "to",
          "type": "address"
        },
        {
          "internalType": "uint256",
          "name": "amount",
          "type": "uint256"
        },
        {
          "internalType": "uint256",
          "name": "social",
          "type": "uint256"
        },
        {
          "internalType": "uint256",
          "name": "environment",
          "type": "uint256"
        },
        {
          "internalType": "uint256",
          "name": "impact",
          "type": "uint256"
        },
        {
          "internalType": "bool",
          "name": "boosted",
          "type": "bool"
        }
      ],
      "name": "mintWasteToken",
      "outputs": [
        {
          "internalType": "uint256",
          "name": "",
          "type": "uint256"
        }
      ],
      "stateMutability": "nonpayable",
      "type": "function"
    },
    {
      "inputs": [],
      "name": "pause",
      "outputs": [],
      "stateMutability": "nonpayable",
      "type": "function"
    },
    {
      "inputs": [],
      "name": "paused",
      "outputs": [
        {
          "internalType": "bool",
          "name": "",
          "type": "bool"
        }
      ],
      "stateMutability": "view",
      "type": "function"
    },
    {
      "inputs": [
        {
          "internalType": "bytes32",
          "name": "role",
          "type": "bytes32"
        },
        {
          "internalType": "address",
          "name": "account",
          "type": "address"
        }
      ],
      "name": "renounceRole",
      "outputs": [],
      "stateMutability": "nonpayable",
      "type": "function"
    },
    {
      "inputs": [
        {
          "internalType": "bytes32",
          "name": "role",
          "type": "bytes32"
        },
        {
          "internalType": "address",
          "name": "account",
          "type": "address"
        }
      ],
      "name": "revokeRole",
      "outputs": [],
      "stateMutability": "nonpayable",
      "type": "function"
    },
    {
      "inputs": [
        {
          "internalType": "address",
          "name": "from",
          "type": "address"
        },
        {
          "internalType": "address",
          "name": "to",
          "type": "address"
        },
        {
          "internalType": "uint256[]",
          "name": "ids",
          "type": "uint256[]"
        },
        {
          "internalType": "uint256[]",
          "name": "amounts",
          "type": "uint256[]"
        },
        {
          "internalType": "bytes",
          "name": "data",
          "type": "bytes"
        }
      ],
      "name": "safeBatchTransferFrom",
      "outputs": [],
      "stateMutability": "nonpayable",
      "type": "function"
    },
    {
      "inputs": [
        {
          "internalType": "address",
          "name": "from",
          "type": "address"
        },
        {
          "internalType": "address",
          "name": "to",
          "type": "address"
        },
        {
          "internalType": "uint256",
          "name": "id",
          "type": "uint256"
        },
        {
          "internalType": "uint256",
          "name": "amount",
          "type": "uint256"
        },
        {
          "internalType": "bytes",
          "name": "data",
          "type": "bytes"
        }
      ],
      "name": "safeTransferFrom",
      "outputs": [],
      "stateMutability": "nonpayable",
      "type": "function"
    },
    {
      "inputs": [
        {
          "internalType": "address",
          "name": "operator",
          "type": "address"
        },
        {
          "internalType": "bool",
          "name": "approved",
          "type": "bool"
        }
      ],
      "name": "setApprovalForAll",
      "outputs": [],
      "stateMutability": "nonpayable",
      "type": "function"
    },
    {
      "inputs": [
        {
          "internalType": "bytes4",
          "name": "interfaceId",
          "type": "bytes4"
        }
      ],
      "name": "supportsInterface",
      "outputs": [
        {
          "internalType": "bool",
          "name": "",
          "type": "bool"
        }
      ],
      "stateMutability": "view",
      "type": "function"
    },
    {
      "inputs": [
        {
          "internalType": "uint256",
          "name": "",
          "type": "uint256"
        }
      ],
      "name": "tokenList",
      "outputs": [
        {
          "internalType": "address",
          "name": "creator",
          "type": "address"
        },
        {
          "internalType": "uint256",
          "name": "social",
          "type": "uint256"
        },
        {
          "internalType": "uint256",
          "name": "environment",
          "type": "uint256"
        },
        {
          "internalType": "uint256",
          "name": "impact",
          "type": "uint256"
        },
        {
          "internalType": "bool",
          "name": "boosted",
          "type": "bool"
        }
      ],
      "stateMutability": "view",
      "type": "function"
    },
    {
      "inputs": [],
      "name": "unpause",
      "outputs": [],
      "stateMutability": "nonpayable",
      "type": "function"
    },
    {
      "inputs": [
        {
          "internalType": "uint256",
          "name": "",
          "type": "uint256"
        }
      ],
      "name": "uri",
      "outputs": [
        {
          "internalType": "string",
          "name": "",
          "type": "string"
        }
      ],
      "stateMutability": "view",
      "type": "function"
    }
  ],
  "bytecode": "0x60806040523480156200001157600080fd5b5060405162004b6038038062004b60833981810160405260208110156200003757600080fd5b81019080805160405193929190846401000000008211156200005857600080fd5b838201915060208201858111156200006f57600080fd5b82518660018202830111640100000000821117156200008d57600080fd5b8083526020830192505050908051906020019080838360005b83811015620000c3578082015181840152602081019050620000a6565b50505050905090810190601f168015620000f15780820380516001836020036101000a031916815260200191505b5060405250505080620001116301ffc9a760e01b6200024560201b60201c565b62000122816200034e60201b60201c565b6200013a63d9b67a2660e01b6200024560201b60201c565b62000152630e89341c60e01b6200024560201b60201c565b506000600560006101000a81548160ff021916908315150217905550620001926000801b620001866200036a60201b60201c565b6200037260201b60201c565b620001e860405180807f4d494e5445525f524f4c45000000000000000000000000000000000000000000815250600b0190506040518091039020620001dc6200036a60201b60201c565b6200037260201b60201c565b6200023e60405180807f5041555345525f524f4c45000000000000000000000000000000000000000000815250600b0190506040518091039020620002326200036a60201b60201c565b6200037260201b60201c565b50620005af565b63ffffffff60e01b817bffffffffffffffffffffffffffffffffffffffffffffffffffffffff19161415620002e2576040517f08c379a000000000000000000000000000000000000000000000000000000000815260040180806020018281038252601c8152602001807f4552433136353a20696e76616c696420696e746572666163652069640000000081525060200191505060405180910390fd5b6001806000837bffffffffffffffffffffffffffffffffffffffffffffffffffffffff19167bffffffffffffffffffffffffffffffffffffffffffffffffffffffff1916815260200190815260200160002060006101000a81548160ff02191690831515021790555050565b80600490805190602001906200036692919062000500565b5050565b600033905090565b6200038482826200038860201b60201c565b5050565b620003b6816000808581526020019081526020016000206000016200042b60201b62003f281790919060201c565b156200042757620003cc6200036a60201b60201c565b73ffffffffffffffffffffffffffffffffffffffff168173ffffffffffffffffffffffffffffffffffffffff16837f2f8788117e7eff1d82e926ec794901d17c78024a50270940304540a733656f0d60405160405180910390a45b5050565b60006200045b836000018373ffffffffffffffffffffffffffffffffffffffff1660001b6200046360201b60201c565b905092915050565b6000620004778383620004dd60201b60201c565b620004d2578260000182908060018154018082558091505060019003906000526020600020016000909190919091505582600001805490508360010160008481526020019081526020016000208190555060019050620004d7565b600090505b92915050565b600080836001016000848152602001908152602001600020541415905092915050565b828054600181600116156101000203166002900490600052602060002090601f016020900481019282601f106200054357805160ff191683800117855562000574565b8280016001018555821562000574579182015b828111156200057357825182559160200191906001019062000556565b5b50905062000583919062000587565b5090565b620005ac91905b80821115620005a85760008160009055506001016200058e565b5090565b90565b6145a180620005bf6000396000f3fe608060405234801561001057600080fd5b50600436106101ce5760003560e01c80639010d07c11610104578063d5391393116100a2578063e63ab1e911610071578063e63ab1e914610e73578063e985e9c514610e91578063f242432a14610f0d578063f5298aca1461101c576101ce565b8063d539139314610d28578063d547741f14610d46578063e00dd16114610d94578063e4b50cb814610db2576101ce565b8063a217fddf116100de578063a217fddf14610bec578063a22cb46514610c0a578063b01d75a214610c5a578063ca15c87314610ce6576101ce565b80639010d07c14610a8057806391d1485414610af85780639ead722214610b5e576101ce565b806336568abe116101715780635c975abb1161014b5780635c975abb1461084f5780636b20c45414610871578063764f3aa8146109dd5780638456cb5914610a76576101ce565b806336568abe146106565780633f4ba83a146106a45780634e1273f4146106ae576101ce565b80630e89341c116101ad5780630e89341c146102fc578063248a9ca3146103a35780632eb2c2d6146103e55780632f2ff15d14610608576101ce565b8062fdd58e146101d357806301ffc9a7146102355780630916bae51461029a575b600080fd5b61021f600480360360408110156101e957600080fd5b81019080803573ffffffffffffffffffffffffffffffffffffffff16906020019092919080359060200190929190505050611074565b6040518082815260200191505060405180910390f35b6102806004803603602081101561024b57600080fd5b8101908080357bffffffffffffffffffffffffffffffffffffffffffffffffffffffff19169060200190929190505050611154565b604051808215151515815260200191505060405180910390f35b6102e6600480360360408110156102b057600080fd5b81019080803573ffffffffffffffffffffffffffffffffffffffff169060200190929190803590602001909291905050506111bc565b6040518082815260200191505060405180910390f35b6103286004803603602081101561031257600080fd5b8101908080359060200190929190505050611255565b6040518080602001828103825283818151815260200191508051906020019080838360005b8381101561036857808201518184015260208101905061034d565b50505050905090810190601f1680156103955780820380516001836020036101000a031916815260200191505b509250505060405180910390f35b6103cf600480360360208110156103b957600080fd5b81019080803590602001909291905050506112f9565b6040518082815260200191505060405180910390f35b610606600480360360a08110156103fb57600080fd5b81019080803573ffffffffffffffffffffffffffffffffffffffff169060200190929190803573ffffffffffffffffffffffffffffffffffffffff1690602001909291908035906020019064010000000081111561045857600080fd5b82018360208201111561046a57600080fd5b8035906020019184602083028401116401000000008311171561048c57600080fd5b919080806020026020016040519081016040528093929190818152602001838360200280828437600081840152601f19601f820116905080830192505050505050509192919290803590602001906401000000008111156104ec57600080fd5b8201836020820111156104fe57600080fd5b8035906020019184602083028401116401000000008311171561052057600080fd5b919080806020026020016040519081016040528093929190818152602001838360200280828437600081840152601f19601f8201169050808301925050505050505091929192908035906020019064010000000081111561058057600080fd5b82018360208201111561059257600080fd5b803590602001918460018302840111640100000000831117156105b457600080fd5b91908080601f016020809104026020016040519081016040528093929190818152602001838380828437600081840152601f19601f820116905080830192505050505050509192919290505050611318565b005b6106546004803603604081101561061e57600080fd5b8101908080359060200190929190803573ffffffffffffffffffffffffffffffffffffffff1690602001909291905050506117a6565b005b6106a26004803603604081101561066c57600080fd5b8101908080359060200190929190803573ffffffffffffffffffffffffffffffffffffffff16906020019092919050505061182f565b005b6106ac6118c8565b005b6107f8600480360360408110156106c457600080fd5b81019080803590602001906401000000008111156106e157600080fd5b8201836020820111156106f357600080fd5b8035906020019184602083028401116401000000008311171561071557600080fd5b919080806020026020016040519081016040528093929190818152602001838360200280828437600081840152601f19601f8201169050808301925050505050505091929192908035906020019064010000000081111561077557600080fd5b82018360208201111561078757600080fd5b803590602001918460208302840111640100000000831117156107a957600080fd5b919080806020026020016040519081016040528093929190818152602001838360200280828437600081840152601f19601f82011690508083019250505050505050919291929050505061196d565b6040518080602001828103825283818151815260200191508051906020019060200280838360005b8381101561083b578082015181840152602081019050610820565b505050509050019250505060405180910390f35b610857611b4b565b604051808215151515815260200191505060405180910390f35b6109db6004803603606081101561088757600080fd5b81019080803573ffffffffffffffffffffffffffffffffffffffff169060200190929190803590602001906401000000008111156108c457600080fd5b8201836020820111156108d657600080fd5b803590602001918460208302840111640100000000831117156108f857600080fd5b919080806020026020016040519081016040528093929190818152602001838360200280828437600081840152601f19601f8201169050808301925050505050505091929192908035906020019064010000000081111561095857600080fd5b82018360208201111561096a57600080fd5b8035906020019184602083028401116401000000008311171561098c57600080fd5b919080806020026020016040519081016040528093929190818152602001838360200280828437600081840152601f19601f820116905080830192505050505050509192919290505050611b62565b005b610a1f600480360360208110156109f357600080fd5b81019080803573ffffffffffffffffffffffffffffffffffffffff169060200190929190505050611c15565b6040518080602001828103825283818151815260200191508051906020019060200280838360005b83811015610a62578082015181840152602081019050610a47565b505050509050019250505060405180910390f35b610a7e611d20565b005b610ab660048036036040811015610a9657600080fd5b810190808035906020019092919080359060200190929190505050611dc5565b604051808273ffffffffffffffffffffffffffffffffffffffff1673ffffffffffffffffffffffffffffffffffffffff16815260200191505060405180910390f35b610b4460048036036040811015610b0e57600080fd5b8101908080359060200190929190803573ffffffffffffffffffffffffffffffffffffffff169060200190929190505050611df6565b604051808215151515815260200191505060405180910390f35b610b8a60048036036020811015610b7457600080fd5b8101908080359060200190929190505050611e27565b604051808673ffffffffffffffffffffffffffffffffffffffff1673ffffffffffffffffffffffffffffffffffffffff168152602001858152602001848152602001838152602001821515151581526020019550505050505060405180910390f35b610bf4611e8a565b6040518082815260200191505060405180910390f35b610c5860048036036040811015610c2057600080fd5b81019080803573ffffffffffffffffffffffffffffffffffffffff169060200190929190803515159060200190929190505050611e91565b005b610cd0600480360360c0811015610c7057600080fd5b81019080803573ffffffffffffffffffffffffffffffffffffffff1690602001909291908035906020019092919080359060200190929190803590602001909291908035906020019092919080351515906020019092919050505061202c565b6040518082815260200191505060405180910390f35b610d1260048036036020811015610cfc57600080fd5b81019080803590602001909291905050506121e5565b6040518082815260200191505060405180910390f35b610d3061220b565b6040518082815260200191505060405180910390f35b610d9260048036036040811015610d5c57600080fd5b8101908080359060200190929190803573ffffffffffffffffffffffffffffffffffffffff169060200190929190505050612244565b005b610d9c6122cd565b6040518082815260200191505060405180910390f35b610dde60048036036020811015610dc857600080fd5b81019080803590602001909291905050506122d3565b604051808473ffffffffffffffffffffffffffffffffffffffff1673ffffffffffffffffffffffffffffffffffffffff1681526020018315151515815260200180602001828103825283818151815260200191508051906020019060200280838360005b83811015610e5d578082015181840152602081019050610e42565b5050505090500194505050505060405180910390f35b610e7b61248a565b6040518082815260200191505060405180910390f35b610ef360048036036040811015610ea757600080fd5b81019080803573ffffffffffffffffffffffffffffffffffffffff169060200190929190803573ffffffffffffffffffffffffffffffffffffffff1690602001909291905050506124c3565b604051808215151515815260200191505060405180910390f35b61101a600480360360a0811015610f2357600080fd5b81019080803573ffffffffffffffffffffffffffffffffffffffff169060200190929190803573ffffffffffffffffffffffffffffffffffffffff169060200190929190803590602001909291908035906020019092919080359060200190640100000000811115610f9457600080fd5b820183602082011115610fa657600080fd5b80359060200191846001830284011164010000000083111715610fc857600080fd5b91908080601f016020809104026020016040519081016040528093929190818152602001838380828437600081840152601f19601f820116905080830192505050505050509192919290505050612557565b005b6110726004803603606081101561103257600080fd5b81019080803573ffffffffffffffffffffffffffffffffffffffff16906020019092919080359060200190929190803590602001909291905050506128cc565b005b60008073ffffffffffffffffffffffffffffffffffffffff168373ffffffffffffffffffffffffffffffffffffffff1614156110fb576040517f08c379a000000000000000000000000000000000000000000000000000000000815260040180806020018281038252602b81526020018061424d602b913960400191505060405180910390fd5b6002600083815260200190815260200160002060008473ffffffffffffffffffffffffffffffffffffffff1673ffffffffffffffffffffffffffffffffffffffff16815260200190815260200160002054905092915050565b600060016000837bffffffffffffffffffffffffffffffffffffffffffffffffffffffff19167bffffffffffffffffffffffffffffffffffffffffffffffffffffffff1916815260200190815260200160002060009054906101000a900460ff169050919050565b60008073ffffffffffffffffffffffffffffffffffffffff168373ffffffffffffffffffffffffffffffffffffffff161415611243576040517f08c379a00000000000000000000000000000000000000000000000000000000081526004018080602001828103825260318152602001806142786031913960400191505060405180910390fd5b61124d8383611074565b905092915050565b606060048054600181600116156101000203166002900480601f0160208091040260200160405190810160405280929190818152602001828054600181600116156101000203166002900480156112ed5780601f106112c2576101008083540402835291602001916112ed565b820191906000526020600020905b8154815290600101906020018083116112d057829003601f168201915b50505050509050919050565b6000806000838152602001908152602001600020600201549050919050565b8151835114611372576040517f08c379a00000000000000000000000000000000000000000000000000000000081526004018080602001828103825260288152602001806144f46028913960400191505060405180910390fd5b600073ffffffffffffffffffffffffffffffffffffffff168473ffffffffffffffffffffffffffffffffffffffff1614156113f8576040517f08c379a00000000000000000000000000000000000000000000000000000000081526004018080602001828103825260258152602001806143526025913960400191505060405180910390fd5b61140061297f565b73ffffffffffffffffffffffffffffffffffffffff168573ffffffffffffffffffffffffffffffffffffffff16148061144657506114458561144061297f565b6124c3565b5b61149b576040517f08c379a00000000000000000000000000000000000000000000000000000000081526004018080602001828103825260328152602001806143776032913960400191505060405180910390fd5b60006114a561297f565b90506114b5818787878787612987565b60008090505b84518110156116895760008582815181106114d257fe5b6020026020010151905060008583815181106114ea57fe5b60200260200101519050611571816040518060600160405280602a8152602001614404602a91396002600086815260200190815260200160002060008d73ffffffffffffffffffffffffffffffffffffffff1673ffffffffffffffffffffffffffffffffffffffff1681526020019081526020016000205461299d9092919063ffffffff16565b6002600084815260200190815260200160002060008b73ffffffffffffffffffffffffffffffffffffffff1673ffffffffffffffffffffffffffffffffffffffff16815260200190815260200160002081905550611628816002600085815260200190815260200160002060008b73ffffffffffffffffffffffffffffffffffffffff1673ffffffffffffffffffffffffffffffffffffffff16815260200190815260200160002054612a5d90919063ffffffff16565b6002600084815260200190815260200160002060008a73ffffffffffffffffffffffffffffffffffffffff1673ffffffffffffffffffffffffffffffffffffffff1681526020019081526020016000208190555050508060010190506114bb565b508473ffffffffffffffffffffffffffffffffffffffff168673ffffffffffffffffffffffffffffffffffffffff168273ffffffffffffffffffffffffffffffffffffffff167f4a39dc06d4c0dbc64b70af90fd698a233a518aa5d07e595d983b8c0526c8f7fb8787604051808060200180602001838103835285818151815260200191508051906020019060200280838360005b8381101561173957808201518184015260208101905061171e565b50505050905001838103825284818151815260200191508051906020019060200280838360005b8381101561177b578082015181840152602081019050611760565b5050505090500194505050505060405180910390a461179e818787878787612ae5565b505050505050565b6117cc600080848152602001908152602001600020600201546117c761297f565b611df6565b611821576040517f08c379a000000000000000000000000000000000000000000000000000000000815260040180806020018281038252602f81526020018061421e602f913960400191505060405180910390fd5b61182b8282612f5d565b5050565b61183761297f565b73ffffffffffffffffffffffffffffffffffffffff168173ffffffffffffffffffffffffffffffffffffffff16146118ba576040517f08c379a000000000000000000000000000000000000000000000000000000000815260040180806020018281038252602f81526020018061453d602f913960400191505060405180910390fd5b6118c48282612ff0565b5050565b61190e60405180807f5041555345525f524f4c45000000000000000000000000000000000000000000815250600b019050604051809103902061190961297f565b611df6565b611963576040517f08c379a000000000000000000000000000000000000000000000000000000000815260040180806020018281038252603b81526020018061442e603b913960400191505060405180910390fd5b61196b613083565b565b606081518351146119c9576040517f08c379a00000000000000000000000000000000000000000000000000000000081526004018080602001828103825260298152602001806144cb6029913960400191505060405180910390fd5b606083516040519080825280602002602001820160405280156119fb5781602001602082028038833980820191505090505b50905060008090505b8451811015611b4057600073ffffffffffffffffffffffffffffffffffffffff16858281518110611a3157fe5b602002602001015173ffffffffffffffffffffffffffffffffffffffff161415611aa6576040517f08c379a00000000000000000000000000000000000000000000000000000000081526004018080602001828103825260318152602001806142786031913960400191505060405180910390fd5b60026000858381518110611ab657fe5b602002602001015181526020019081526020016000206000868381518110611ada57fe5b602002602001015173ffffffffffffffffffffffffffffffffffffffff1673ffffffffffffffffffffffffffffffffffffffff16815260200190815260200160002054828281518110611b2957fe5b602002602001018181525050806001019050611a04565b508091505092915050565b6000600560009054906101000a900460ff16905090565b611b6a61297f565b73ffffffffffffffffffffffffffffffffffffffff168373ffffffffffffffffffffffffffffffffffffffff161480611bb05750611baf83611baa61297f565b6124c3565b5b611c05576040517f08c379a00000000000000000000000000000000000000000000000000000000081526004018080602001828103825260298152602001806142f96029913960400191505060405180910390fd5b611c1083838361318c565b505050565b6060600073ffffffffffffffffffffffffffffffffffffffff168273ffffffffffffffffffffffffffffffffffffffff161415611c9d576040517f08c379a00000000000000000000000000000000000000000000000000000000081526004018080602001828103825260318152602001806142786031913960400191505060405180910390fd5b6060600160065401604051908082528060200260200182016040528015611cd35781602001602082028038833980820191505090505b50905060008090505b600160065401811015611d1657611cf38482611074565b828281518110611cff57fe5b602002602001018181525050806001019050611cdc565b5080915050919050565b611d6660405180807f5041555345525f524f4c45000000000000000000000000000000000000000000815250600b0190506040518091039020611d6161297f565b611df6565b611dbb576040517f08c379a00000000000000000000000000000000000000000000000000000000081526004018080602001828103825260398152602001806144696039913960400191505060405180910390fd5b611dc36134ca565b565b6000611dee826000808681526020019081526020016000206000016135d490919063ffffffff16565b905092915050565b6000611e1f826000808681526020019081526020016000206000016135ee90919063ffffffff16565b905092915050565b60076020528060005260406000206000915090508060000160009054906101000a900473ffffffffffffffffffffffffffffffffffffffff16908060010154908060020154908060030154908060040160009054906101000a900460ff16905085565b6000801b81565b8173ffffffffffffffffffffffffffffffffffffffff16611eb061297f565b73ffffffffffffffffffffffffffffffffffffffff161415611f1d576040517f08c379a00000000000000000000000000000000000000000000000000000000081526004018080602001828103825260298152602001806144a26029913960400191505060405180910390fd5b8060036000611f2a61297f565b73ffffffffffffffffffffffffffffffffffffffff1673ffffffffffffffffffffffffffffffffffffffff16815260200190815260200160002060008473ffffffffffffffffffffffffffffffffffffffff1673ffffffffffffffffffffffffffffffffffffffff16815260200190815260200160002060006101000a81548160ff0219169083151502179055508173ffffffffffffffffffffffffffffffffffffffff16611fd761297f565b73ffffffffffffffffffffffffffffffffffffffff167f17307eab39ab6107e8899845ad3d59bd9653f200f220920489ca2b5937696c3183604051808215151515815260200191505060405180910390a35050565b600061207460405180807f4d494e5445525f524f4c45000000000000000000000000000000000000000000815250600b019050604051809103902061206f61297f565b611df6565b6120c9576040517f08c379a00000000000000000000000000000000000000000000000000000000081526004018080602001828103825260388152602001806143cc6038913960400191505060405180910390fd5b6040518060a001604052808873ffffffffffffffffffffffffffffffffffffffff16815260200186815260200185815260200184815260200183151581525060076000600654815260200190815260200160002060008201518160000160006101000a81548173ffffffffffffffffffffffffffffffffffffffff021916908373ffffffffffffffffffffffffffffffffffffffff16021790555060208201518160010155604082015181600201556060820151816003015560808201518160040160006101000a81548160ff0219169083151502179055509050506121c287600654886040518060200160405280600081525061361e565b600160066000828254019250508190555060016006540390509695505050505050565b6000612204600080848152602001908152602001600020600001613821565b9050919050565b60405180807f4d494e5445525f524f4c45000000000000000000000000000000000000000000815250600b019050604051809103902081565b61226a6000808481526020019081526020016000206002015461226561297f565b611df6565b6122bf576040517f08c379a00000000000000000000000000000000000000000000000000000000081526004018080602001828103825260308152602001806143226030913960400191505060405180910390fd5b6122c98282612ff0565b5050565b60065481565b6000806060600654841061234f576040517f08c379a00000000000000000000000000000000000000000000000000000000081526004018080602001828103825260158152602001807f696420646f6573206e6f7420657869737420796574000000000000000000000081525060200191505060405180910390fd5b60006007600086815260200190815260200160002060000160009054906101000a900473ffffffffffffffffffffffffffffffffffffffff16905060006007600087815260200190815260200160002060040160009054906101000a900460ff169050606060036040519080825280602002602001820160405280156123e45781602001602082028038833980820191505090505b50905060076000888152602001908152602001600020600101548160008151811061240b57fe5b60200260200101818152505060076000888152602001908152602001600020600201548160018151811061243b57fe5b60200260200101818152505060076000888152602001908152602001600020600301548160028151811061246b57fe5b6020026020010181815250508282829550955095505050509193909250565b60405180807f5041555345525f524f4c45000000000000000000000000000000000000000000815250600b019050604051809103902081565b6000600360008473ffffffffffffffffffffffffffffffffffffffff1673ffffffffffffffffffffffffffffffffffffffff16815260200190815260200160002060008373ffffffffffffffffffffffffffffffffffffffff1673ffffffffffffffffffffffffffffffffffffffff16815260200190815260200160002060009054906101000a900460ff16905092915050565b600073ffffffffffffffffffffffffffffffffffffffff168473ffffffffffffffffffffffffffffffffffffffff1614156125dd576040517f08c379a00000000000000000000000000000000000000000000000000000000081526004018080602001828103825260258152602001806143526025913960400191505060405180910390fd5b6125e561297f565b73ffffffffffffffffffffffffffffffffffffffff168573ffffffffffffffffffffffffffffffffffffffff16148061262b575061262a8561262561297f565b6124c3565b5b612680576040517f08c379a00000000000000000000000000000000000000000000000000000000081526004018080602001828103825260298152602001806142f96029913960400191505060405180910390fd5b600061268a61297f565b90506126aa81878761269b88613836565b6126a488613836565b87612987565b612727836040518060600160405280602a8152602001614404602a91396002600088815260200190815260200160002060008a73ffffffffffffffffffffffffffffffffffffffff1673ffffffffffffffffffffffffffffffffffffffff1681526020019081526020016000205461299d9092919063ffffffff16565b6002600086815260200190815260200160002060008873ffffffffffffffffffffffffffffffffffffffff1673ffffffffffffffffffffffffffffffffffffffff168152602001908152602001600020819055506127de836002600087815260200190815260200160002060008873ffffffffffffffffffffffffffffffffffffffff1673ffffffffffffffffffffffffffffffffffffffff16815260200190815260200160002054612a5d90919063ffffffff16565b6002600086815260200190815260200160002060008773ffffffffffffffffffffffffffffffffffffffff1673ffffffffffffffffffffffffffffffffffffffff168152602001908152602001600020819055508473ffffffffffffffffffffffffffffffffffffffff168673ffffffffffffffffffffffffffffffffffffffff168273ffffffffffffffffffffffffffffffffffffffff167fc3d58168c5ae7397731d063d5bbf3d657854427343f4c083240f7aacaa2d0f628787604051808381526020018281526020019250505060405180910390a46128c481878787878761388f565b505050505050565b6128d461297f565b73ffffffffffffffffffffffffffffffffffffffff168373ffffffffffffffffffffffffffffffffffffffff16148061291a57506129198361291461297f565b6124c3565b5b61296f576040517f08c379a00000000000000000000000000000000000000000000000000000000081526004018080602001828103825260298152602001806142f96029913960400191505060405180910390fd5b61297a838383613c85565b505050565b600033905090565b612995868686868686613ea1565b505050505050565b6000838311158290612a4a576040517f08c379a00000000000000000000000000000000000000000000000000000000081526004018080602001828103825283818151815260200191508051906020019080838360005b83811015612a0f5780820151818401526020810190506129f4565b50505050905090810190601f168015612a3c5780820380516001836020036101000a031916815260200191505b509250505060405180910390fd5b5060008385039050809150509392505050565b600080828401905083811015612adb576040517f08c379a000000000000000000000000000000000000000000000000000000000815260040180806020018281038252601b8152602001807f536166654d6174683a206164646974696f6e206f766572666c6f77000000000081525060200191505060405180910390fd5b8091505092915050565b612b048473ffffffffffffffffffffffffffffffffffffffff16613f15565b15612f55578373ffffffffffffffffffffffffffffffffffffffff1663bc197c8187878686866040518663ffffffff1660e01b8152600401808673ffffffffffffffffffffffffffffffffffffffff1673ffffffffffffffffffffffffffffffffffffffff1681526020018573ffffffffffffffffffffffffffffffffffffffff1673ffffffffffffffffffffffffffffffffffffffff168152602001806020018060200180602001848103845287818151815260200191508051906020019060200280838360005b83811015612be8578082015181840152602081019050612bcd565b50505050905001848103835286818151815260200191508051906020019060200280838360005b83811015612c2a578082015181840152602081019050612c0f565b50505050905001848103825285818151815260200191508051906020019080838360005b83811015612c69578082015181840152602081019050612c4e565b50505050905090810190601f168015612c965780820380516001836020036101000a031916815260200191505b5098505050505050505050602060405180830381600087803b158015612cbb57600080fd5b505af1925050508015612cef57506040513d6020811015612cdb57600080fd5b810190808051906020019092919050505060015b612eb6576000604051905060008152600115612db85760443d1015612d175760009050612db8565b60046000803e60005160e01c6308c379a08114612d38576000915050612db8565b60043d036004833e81513d602482011167ffffffffffffffff82111715612d6457600092505050612db8565b808301805167ffffffffffffffff811115612d86576000945050505050612db8565b8060208301013d8601811115612da457600095505050505050612db8565b601f19601f82011660405282955050505050505b80612dc35750612e65565b806040517f08c379a00000000000000000000000000000000000000000000000000000000081526004018080602001828103825283818151815260200191508051906020019080838360005b83811015612e2a578082015181840152602081019050612e0f565b50505050905090810190601f168015612e575780820380516001836020036101000a031916815260200191505b509250505060405180910390fd5b6040517f08c379a00000000000000000000000000000000000000000000000000000000081526004018080602001828103825260348152602001806141a06034913960400191505060405180910390fd5b63bc197c8160e01b7bffffffffffffffffffffffffffffffffffffffffffffffffffffffff1916817bffffffffffffffffffffffffffffffffffffffffffffffffffffffff191614612f53576040517f08c379a00000000000000000000000000000000000000000000000000000000081526004018080602001828103825260288152602001806141f66028913960400191505060405180910390fd5b505b505050505050565b612f8481600080858152602001908152602001600020600001613f2890919063ffffffff16565b15612fec57612f9161297f565b73ffffffffffffffffffffffffffffffffffffffff168173ffffffffffffffffffffffffffffffffffffffff16837f2f8788117e7eff1d82e926ec794901d17c78024a50270940304540a733656f0d60405160405180910390a45b5050565b61301781600080858152602001908152602001600020600001613f5890919063ffffffff16565b1561307f5761302461297f565b73ffffffffffffffffffffffffffffffffffffffff168173ffffffffffffffffffffffffffffffffffffffff16837ff6391f5c32d9c69d2a47ea670b442974b53935d1edc7fd64eb21e047a839171b60405160405180910390a45b5050565b600560009054906101000a900460ff16613105576040517f08c379a00000000000000000000000000000000000000000000000000000000081526004018080602001828103825260148152602001807f5061757361626c653a206e6f742070617573656400000000000000000000000081525060200191505060405180910390fd5b6000600560006101000a81548160ff0219169083151502179055507f5db9ee0a495bf2e6ff9c91a7834c1ba4fdd244a5e8aa4e537bd38aeae4b073aa61314961297f565b604051808273ffffffffffffffffffffffffffffffffffffffff1673ffffffffffffffffffffffffffffffffffffffff16815260200191505060405180910390a1565b600073ffffffffffffffffffffffffffffffffffffffff168373ffffffffffffffffffffffffffffffffffffffff161415613212576040517f08c379a00000000000000000000000000000000000000000000000000000000081526004018080602001828103825260238152602001806143a96023913960400191505060405180910390fd5b805182511461326c576040517f08c379a00000000000000000000000000000000000000000000000000000000081526004018080602001828103825260288152602001806144f46028913960400191505060405180910390fd5b600061327661297f565b905061329681856000868660405180602001604052806000815250612987565b60008090505b83518110156133bc576133488382815181106132b457fe5b60200260200101516040518060600160405280602481526020016142a960249139600260008886815181106132e557fe5b6020026020010151815260200190815260200160002060008973ffffffffffffffffffffffffffffffffffffffff1673ffffffffffffffffffffffffffffffffffffffff1681526020019081526020016000205461299d9092919063ffffffff16565b6002600086848151811061335857fe5b6020026020010151815260200190815260200160002060008773ffffffffffffffffffffffffffffffffffffffff1673ffffffffffffffffffffffffffffffffffffffff16815260200190815260200160002081905550808060010191505061329c565b50600073ffffffffffffffffffffffffffffffffffffffff168473ffffffffffffffffffffffffffffffffffffffff168273ffffffffffffffffffffffffffffffffffffffff167f4a39dc06d4c0dbc64b70af90fd698a233a518aa5d07e595d983b8c0526c8f7fb8686604051808060200180602001838103835285818151815260200191508051906020019060200280838360005b8381101561346d578082015181840152602081019050613452565b50505050905001838103825284818151815260200191508051906020019060200280838360005b838110156134af578082015181840152602081019050613494565b5050505090500194505050505060405180910390a450505050565b600560009054906101000a900460ff161561354d576040517f08c379a00000000000000000000000000000000000000000000000000000000081526004018080602001828103825260108152602001807f5061757361626c653a207061757365640000000000000000000000000000000081525060200191505060405180910390fd5b6001600560006101000a81548160ff0219169083151502179055507f62e78cea01bee320cd4e420270b5ea74000d11b0c9f74754ebdbfc544b05a25861359161297f565b604051808273ffffffffffffffffffffffffffffffffffffffff1673ffffffffffffffffffffffffffffffffffffffff16815260200191505060405180910390a1565b60006135e38360000183613f88565b60001c905092915050565b6000613616836000018373ffffffffffffffffffffffffffffffffffffffff1660001b61400b565b905092915050565b600073ffffffffffffffffffffffffffffffffffffffff168473ffffffffffffffffffffffffffffffffffffffff1614156136a4576040517f08c379a000000000000000000000000000000000000000000000000000000000815260040180806020018281038252602181526020018061451c6021913960400191505060405180910390fd5b60006136ae61297f565b90506136cf816000876136c088613836565b6136c988613836565b87612987565b613732836002600087815260200190815260200160002060008873ffffffffffffffffffffffffffffffffffffffff1673ffffffffffffffffffffffffffffffffffffffff16815260200190815260200160002054612a5d90919063ffffffff16565b6002600086815260200190815260200160002060008773ffffffffffffffffffffffffffffffffffffffff1673ffffffffffffffffffffffffffffffffffffffff168152602001908152602001600020819055508473ffffffffffffffffffffffffffffffffffffffff16600073ffffffffffffffffffffffffffffffffffffffff168273ffffffffffffffffffffffffffffffffffffffff167fc3d58168c5ae7397731d063d5bbf3d657854427343f4c083240f7aacaa2d0f628787604051808381526020018281526020019250505060405180910390a461381a8160008787878761388f565b5050505050565b600061382f8260000161402e565b9050919050565b60608060016040519080825280602002602001820160405280156138695781602001602082028038833980820191505090505b509050828160008151811061387a57fe5b60200260200101818152505080915050919050565b6138ae8473ffffffffffffffffffffffffffffffffffffffff16613f15565b15613c7d578373ffffffffffffffffffffffffffffffffffffffff1663f23a6e6187878686866040518663ffffffff1660e01b8152600401808673ffffffffffffffffffffffffffffffffffffffff1673ffffffffffffffffffffffffffffffffffffffff1681526020018573ffffffffffffffffffffffffffffffffffffffff1673ffffffffffffffffffffffffffffffffffffffff16815260200184815260200183815260200180602001828103825283818151815260200191508051906020019080838360005b83811015613993578082015181840152602081019050613978565b50505050905090810190601f1680156139c05780820380516001836020036101000a031916815260200191505b509650505050505050602060405180830381600087803b1580156139e357600080fd5b505af1925050508015613a1757506040513d6020811015613a0357600080fd5b810190808051906020019092919050505060015b613bde576000604051905060008152600115613ae05760443d1015613a3f5760009050613ae0565b60046000803e60005160e01c6308c379a08114613a60576000915050613ae0565b60043d036004833e81513d602482011167ffffffffffffffff82111715613a8c57600092505050613ae0565b808301805167ffffffffffffffff811115613aae576000945050505050613ae0565b8060208301013d8601811115613acc57600095505050505050613ae0565b601f19601f82011660405282955050505050505b80613aeb5750613b8d565b806040517f08c379a00000000000000000000000000000000000000000000000000000000081526004018080602001828103825283818151815260200191508051906020019080838360005b83811015613b52578082015181840152602081019050613b37565b50505050905090810190601f168015613b7f5780820380516001836020036101000a031916815260200191505b509250505060405180910390fd5b6040517f08c379a00000000000000000000000000000000000000000000000000000000081526004018080602001828103825260348152602001806141a06034913960400191505060405180910390fd5b63f23a6e6160e01b7bffffffffffffffffffffffffffffffffffffffffffffffffffffffff1916817bffffffffffffffffffffffffffffffffffffffffffffffffffffffff191614613c7b576040517f08c379a00000000000000000000000000000000000000000000000000000000081526004018080602001828103825260288152602001806141f66028913960400191505060405180910390fd5b505b505050505050565b600073ffffffffffffffffffffffffffffffffffffffff168373ffffffffffffffffffffffffffffffffffffffff161415613d0b576040517f08c379a00000000000000000000000000000000000000000000000000000000081526004018080602001828103825260238152602001806143a96023913960400191505060405180910390fd5b6000613d1561297f565b9050613d4581856000613d2787613836565b613d3087613836565b60405180602001604052806000815250612987565b613dc2826040518060600160405280602481526020016142a9602491396002600087815260200190815260200160002060008873ffffffffffffffffffffffffffffffffffffffff1673ffffffffffffffffffffffffffffffffffffffff1681526020019081526020016000205461299d9092919063ffffffff16565b6002600085815260200190815260200160002060008673ffffffffffffffffffffffffffffffffffffffff1673ffffffffffffffffffffffffffffffffffffffff16815260200190815260200160002081905550600073ffffffffffffffffffffffffffffffffffffffff168473ffffffffffffffffffffffffffffffffffffffff168273ffffffffffffffffffffffffffffffffffffffff167fc3d58168c5ae7397731d063d5bbf3d657854427343f4c083240f7aacaa2d0f628686604051808381526020018281526020019250505060405180910390a450505050565b613eaf86868686868661403f565b613eb7611b4b565b15613f0d576040517f08c379a000000000000000000000000000000000000000000000000000000000815260040180806020018281038252602c8152602001806142cd602c913960400191505060405180910390fd5b505050505050565b600080823b905060008111915050919050565b6000613f50836000018373ffffffffffffffffffffffffffffffffffffffff1660001b614047565b905092915050565b6000613f80836000018373ffffffffffffffffffffffffffffffffffffffff1660001b6140b7565b905092915050565b600081836000018054905011613fe9576040517f08c379a00000000000000000000000000000000000000000000000000000000081526004018080602001828103825260228152602001806141d46022913960400191505060405180910390fd5b826000018281548110613ff857fe5b9060005260206000200154905092915050565b600080836001016000848152602001908152602001600020541415905092915050565b600081600001805490509050919050565b505050505050565b6000614053838361400b565b6140ac5782600001829080600181540180825580915050600190039060005260206000200160009091909190915055826000018054905083600101600084815260200190815260200160002081905550600190506140b1565b600090505b92915050565b60008083600101600084815260200190815260200160002054905060008114614193576000600182039050600060018660000180549050039050600086600001828154811061410257fe5b906000526020600020015490508087600001848154811061411f57fe5b906000526020600020018190555060018301876001016000838152602001908152602001600020819055508660000180548061415757fe5b60019003818190600052602060002001600090559055866001016000878152602001908152602001600020600090556001945050505050614199565b60009150505b9291505056fe455243313135353a207472616e7366657220746f206e6f6e2045524331313535526563656976657220696d706c656d656e746572456e756d657261626c655365743a20696e646578206f7574206f6620626f756e6473455243313135353a204552433131353552656365697665722072656a656374656420746f6b656e73416363657373436f6e74726f6c3a2073656e646572206d75737420626520616e2061646d696e20746f206772616e74455243313135353a2062616c616e636520717565727920666f7220746865207a65726f2061646472657373455243313135353a2062617463682062616c616e636520717565727920666f7220746865207a65726f2061646472657373455243313135353a206275726e20616d6f756e7420657863656564732062616c616e6365455243313135355061757361626c653a20746f6b656e207472616e73666572207768696c6520706175736564455243313135353a2063616c6c6572206973206e6f74206f776e6572206e6f7220617070726f766564416363657373436f6e74726f6c3a2073656e646572206d75737420626520616e2061646d696e20746f207265766f6b65455243313135353a207472616e7366657220746f20746865207a65726f2061646472657373455243313135353a207472616e736665722063616c6c6572206973206e6f74206f776e6572206e6f7220617070726f766564455243313135353a206275726e2066726f6d20746865207a65726f2061646472657373455243313135355072657365744d696e7465725061757365723a206d7573742068617665206d696e74657220726f6c6520746f206d696e74455243313135353a20696e73756666696369656e742062616c616e636520666f72207472616e73666572455243313135355072657365744d696e7465725061757365723a206d75737420686176652070617573657220726f6c6520746f20756e7061757365455243313135355072657365744d696e7465725061757365723a206d75737420686176652070617573657220726f6c6520746f207061757365455243313135353a2073657474696e6720617070726f76616c2073746174757320666f722073656c66455243313135353a206163636f756e747320616e6420696473206c656e677468206d69736d61746368455243313135353a2069647320616e6420616d6f756e7473206c656e677468206d69736d61746368455243313135353a206d696e7420746f20746865207a65726f2061646472657373416363657373436f6e74726f6c3a2063616e206f6e6c792072656e6f756e636520726f6c657320666f722073656c66a264697066735822122092fb2f77b61b25d9b9bb80b3dc2abe585bfae38c0c283438923ec9bb2244d5b364736f6c63430006020033",
  "linkReferences": {},
  "deployedLinkReferences": {}
}